:020000040800F2
:1000000000280020C5140008990B00089F0B000869
:10001000A50B0008AB0B0008B10B000800000000A6
:10002000000000000000000000000000B70B000806
:10003000C30B000800000000CF0B0008DB0B00081A
:100040000D1500080D1500080D1500080D15000808
:100050000D1500080D1500080D1500080D150008F8
:100060000D1500080D1500080D1500080D150008E8
:100070000D1500080D1500080D1500080D150008D8
:100080000D1500080D1500080D1500080D150008C8
:100090000D1500080D1500080D1500080D150008B8
:1000A0000D1500080D1500080D1500080D150008A8
:1000B000E90B00080D150008000000000D150008F0
:1000C0000D15000800000000000000000D150008DC
:1000D000000000000D1500080D15000800000000CC
:1000E0000D1500080D1500080D1500080000000092
:1000F0000000000000000000000000000000000000
:0C01000000000000000000005FF808F1A3
:10010C0010B5054C237833B9044B13B10448AFF345
:10011C0000800123237010BD14000020000000009B
:10012C008C2B000808B5034B1BB103490348AFF3F4
:10013C00008008BD00000000180000208C2B000877
:10014C0080B582B000AF00237B6054E02E4A7B6800
:10015C00134419782D4A7B6813440A461A702C4AAA
:10016C007B6813441978284A7B6813440A461A7032
:10017C007B68DBB2184600F053F8254A7B681344C1
:10018C001A7822497B680B441B789A4230D11F4A5B
:10019C007B68134419781F4A7B6813440A461A700B
:1001AC001C4A7B6813441B78002B17D11A4A7B68B6
:1001BC0013441B78632B0BD8174A7B6813441B78AA
:1001CC000133D9B2144A7B6813440A461A700FE003
:1001DC00124A7B68134401221A7009E00F4A7B68AB
:1001EC00134400221A700C4A7B68134400221A70C4
:1001FC007B6801337B607B68022BA7DD00BF00BFEF
:10020C000837BD4680BD00BF3800002034000020F8
:10021C003C00002030000020440000204000002062
:10022C0090B583B000AF0346FB71FB79022B1CD059
:10023C00022B25DC002B02D0012B0BD020E0FC790B
:10024C004FF48071114801F06DFC03461A46104BB7
:10025C001A5516E0FC794FF400710C4801F062FC61
:10026C0003461A460A4B1A550BE0FC794FF4806191
:10027C00064801F057FC03461A46054B1A5500E098
:10028C0000BF00BF0C37BD4690BD00BF000C014045
:10029C003C00002080B483B000AF0346FB71FB79B7
:1002AC00032B01D9002307E0FB79064AD35C002B12
:1002BC000CBF01230023DBB218460C37BD4680BCB3
:1002CC00704700BF3000002080B483B000AF0346FD
:1002DC00FB71FB79032B01D9002307E0FB79064A5C
:1002EC00D35C012B0CBF01230023DBB218460C3767
:1002FC00BD4680BC704700BF4000002080B483B076
:10030C0000AF03460A46FB711346BB71FB790449E7
:10031C00BA79CA5400BF0C37BD4680BC704700BFC9
:10032C004800002080B500AF514B1B78032B00F226
:10033C008F8001A252F823F05503000897030008A0
:10034C00D90300081B04000800224FF4007149482F
:10035C0001F0FFFB01224FF48061464801F0F9FBEC
:10036C0001224FF40061434801F0F3FB01224FF4EA
:10037C008051404801F0EDFB3D4B1B781A463E4B3B
:10038C009B5C184600F07AF863E001224FF4007190
:10039C00384801F0DEFB00224FF48061354801F053
:1003AC00D8FB01224FF40061324801F0D2FB01224C
:1003BC004FF480512F4801F0CCFB2D4B1B781A4683
:1003CC002D4B9B5C184600F059F842E001224FF48B
:1003DC000071284801F0BDFB01224FF480612548D3
:1003EC0001F0B7FB00224FF40061224801F0B1FB91
:1003FC0001224FF480511F4801F0ABFB1C4B1B78C2
:10040C001A461D4B9B5C184600F038F821E001227F
:10041C004FF40071174801F09CFB01224FF48061EE
:10042C00144801F096FB01224FF40061114801F0D1
:10043C0090FB00224FF480510E4801F08AFB0C4BCC
:10044C001B781A460C4B9B5C184600F017F800E022
:10045C0000BF074B1B7801335A4203F0030302F031
:10046C00030258BF5342DAB2014B1A7000BF80BD71
:10047C0047000020000801404800002080B582B0F1
:10048C0000AF0346FB71FB793B4AD35C03F00103DD
:10049C00002B0CBF01230023DBB21A460121374885
:1004AC0001F057FBFB79344AD35C5B08DBB203F0F9
:1004BC000103002B0CBF01230023DBB21A460221DF
:1004CC002E4801F046FBFB792B4AD35C9B08DBB230
:1004DC0003F00103002B0CBF01230023DBB21A46EF
:1004EC000421264801F035FBFB79234AD35CDB0859
:1004FC00DBB203F00103002B0CBF01230023DBB2A2
:10050C001A4608211D4801F024FBFB791A4AD35CDA
:10051C001B09DBB203F00103002B0CBF01230023EA
:10052C00DBB21A461021154801F013FBFB79124A75
:10053C00D35C5B09DBB203F00103002B0CBF01237E
:10054C000023DBB21A4620210C4801F002FBFB7998
:10055C00094AD35C9B09DBB203F00103002B0CBFEF
:10056C0001230023DBB21A464021044801F0F1FAC2
:10057C0000BF0837BD4680BDA42B0008000C01400D
:10058C0080B500AF00F0BEFF00F022F800F0A8F834
:10059C0000F05AF80C4801F03BFF00F02FFB6420F0
:1005AC0000F020FA322000F0E9F90A2000F000FAFD
:1005BC00064B1B78002BFBD000F0F6FDFFF7B2FECC
:1005CC000A2000F0F5F9F3E74C000020950000201C
:1005DC0080B590B000AF07F118032822002118460F
:1005EC0002F0A2FA3B1D00221A605A609A60DA608F
:1005FC001A610223BB610123BB621023FB6200233F
:10060C007B6307F11803184601F0D4FA0346002B5C
:10061C0001D000F0C7F80F237B600023BB600023E0
:10062C00FB6000233B6100237B613B1D00211846CE
:10063C0001F042FD0346002B01D000F0B3F800BFDF
:10064C004037BD4680BD000080B586B000AF07F1D5
:10065C00080300221A605A609A60DA603B46002256
:10066C001A605A601D4B4FF080421A601B4B41F6CA
:10067C003F725A60194B00229A60184B0922DA60BB
:10068C00164B00221A61154B00229A61134801F097
:10069C006FFE0346002B01D000F084F84FF480531A
:1006AC00BB6007F1080319460C4801F0EDFF034647
:1006BC00002B01D000F076F800233B6000237B6018
:1006CC003B461946054802F0C5F90346002B01D0FC
:1006DC0000F068F800BF1837BD4680BD4C00002004
:1006EC0080B586B000AF07F1080300221A605A608B
:1006FC009A60DA60284B9B69274A43F004039361A4
:10070C00254B9B6903F004037B607B68224B9B6940
:10071C00214A43F0080393611F4B9B6903F00803C4
:10072C003B603B68002241F67E611C4801F011FAE7
:10073C0000227F211A4801F00CFA41F67E63BB605F
:10074C000123FB6000233B6102237B6107F108035B
:10075C001946124801F06AF87F23BB600123FB6045
:10076C0000233B6102237B6107F1080319460C4807
:10077C0001F05CF84FF4E063BB600023FB600023E6
:10078C003B6107F108031946054801F04FF800BF1B
:10079C001837BD4680BD00BF001002400008014064
:1007AC00000C014080B400AF72B600BFFEE7000041
:1007BC0080B500AF01227E21024801F0CAF900BFCA
:1007CC0080BD00BF0008014080B500AF00227E2133
:1007DC00024801F0BEF900BF80BD00BF0008014017
:1007EC0080B500AF00210020FFF788FD002101201B
:1007FC00FFF784FD00210220FFF780FD002103207C
:10080C00FFF77CFD00BF80BD80B500AFFFF7D0FFC8
:10081C004FF47A7000F0D8FEFFF7D6FF00BF80BD12
:10082C0080B582B000AF0346FB71FB79012B0AD176
:10083C00012208210C4801F08CF9002206210A48FB
:10084C0001F087F90CE0FB79022B09D10122402140
:10085C00054801F07EF900223021034801F079F9B6
:10086C0000BF0837BD4680BD0008014080B582B08E
:10087C0000AF0346FB71FB79012B0AD10122042145
:10088C000C4801F066F900220A210A4801F061F9CE
:10089C000CE0FB79022B09D101222021054801F043
:1008AC0058F900225021034801F053F900BF0837D2
:1008BC00BD4680BD0008014080B582B000AF034644
:1008CC00FB71FB79012B0AD1012202210C4801F0AA
:1008DC0040F900220C210A4801F03BF90CE0FB79AD
:1008EC00022B09D101221021054801F032F9002216
:1008FC006021034801F02DF900BF0837BD4680BDCB
:10090C000008014080B500AF064B1B78002B06D0C9
:10091C004821054801F035F9322000F02FF800BFCE
:10092C0080BD00BF940000200008014080B500AFDE
:10093C00064B1B78002B06D02421054801F021F929
:10094C00322000F01BF800BF80BD00BF94000020D7
:10095C000008014080B500AF064B1B78002B06D079
:10096C001221054801F00DF9322000F007F800BF04
:10097C0080BD00BF940000200008014080B483B00B
:10098C0000AF7860074A7B681360064B1B68064A09
:10099C001360064B00221A7000BF0C37BD4680BC9A
:1009AC00704700BFA4000020980000209400002095
:1009BC0080B483B000AF7860074A7B681360064B45
:1009CC001B68064A1360064B00221A7000BF0C37D6
:1009DC00BD4680BC704700BFA80000209C000020D2
:1009EC009500002080B483B000AF7860074A7B6824
:1009FC001360064B1B68064A1360064B00221A70E4
:100A0C0000BF0C37BD4680BC704700BFAC00002057
:100A1C00A00000209600002080B400AF094B1B689A
:100A2C00002B0BDD074B1B68013B064A1360054B83
:100A3C001B68002B02DC044B01221A7000BFBD4660
:100A4C0080BC7047980000209400002080B400AF58
:100A5C00094B1B68002B0BDD074B1B68013B064A3F
:100A6C001360054B1B68002B02DC044B01221A702F
:100A7C0000BFBD4680BC70479C0000209500002044
:100A8C0080B400AF094B1B68002B0BDD074B1B68B8
:100A9C00013B064A1360054B1B68002B02DC044B20
:100AAC0001221A7000BFBD4680BC7047A000002018
:100ABC009600002080B582B000AF78607B681B6820
:100ACC00B3F1804F07D1FFF7A7FFFFF7BFFFFFF789
:100ADC00D7FFFFF735FB00BF0837BD4680BD0000D0
:100AEC0080B485B000AF154B9B69144A43F00103E9
:100AFC009361124B9B6903F00103BB60BB680F4B06
:100B0C00DB690E4A43F08053D3610C4BDB6903F075
:100B1C0080537B607B680A4B5B68FB60FB6823F04F
:100B2C00E063FB60FB6843F08063FB60044AFB6896
:100B3C00536000BF1437BD4680BC704700100240A4
:100B4C000000014080B584B000AF78607B681B6802
:100B5C00B3F1804F13D10C4BDB690B4A43F001030B
:100B6C00D361094BDB6903F00103FB60FB680022D6
:100B7C0000211C2000F023FE1C2000F03CFE00BFD6
:100B8C001037BD4680BD00BF0010024080B400AFDE
:100B9C00FEE780B400AFFEE780B400AFFEE780B4A0
:100BAC0000AFFEE780B400AFFEE780B400AF00BF3B
:100BBC00BD4680BC704780B400AF00BFBD4680BC52
:100BCC00704780B400AF00BFBD4680BC704780B595
:100BDC0000AF00F0DDFC00BF80BD000080B500AFB1
:100BEC00024801F061FC00BF80BD00BF4C0000203A
:100BFC0080B400AF00BFBD4680BC704780B500AF6D
:100C0C00064B00221A70064B00221A70054B00226C
:100C1C001A7000F009F800BF80BD00BFC3000020AF
:100C2C00C4000020C500002080B400AF0D4B1A8812
:100C3C000D4B1A800B4B1A880C4B1A800C4B1A88D4
:100C4C000C4B1A800A4B1A880B4B1A800B4B1A88C8
:100C5C000B4B1A80094B1A880A4B1A8000BFBD46F1
:100C6C0080BC704704000020B0000020B2000020BF
:100C7C0006000020B4000020B60000200800002070
:100C8C00B8000020BA00002080B500AF8A4B1B785A
:100C9C00042B00F27A8101A252F823F0BD0C00085B
:100CAC00C90C0008730D00081D0E0008E10E0008A9
:100CBC00FFF7AAFD804B01221A7066E17F4B1B885F
:100CCC00013B9AB27D4B1A807D4B1B88013B9AB23B
:100CDC007B4B1A800220FFF7EFFD0120FFF7A0FDF0
:100CEC00764B1B88774AA2FB0323DB089BB2DBB253
:100CFC0019460020FFF702FB704B1A88714BA3FBBF
:100D0C000213D9080B469B000B445B00D31A9BB211
:100D1C00DBB219460120FFF7F1FA694B1B88694ACF
:100D2C00A2FB0323DB089BB2DBB219460220FFF7C0
:100D3C00E5FA634B1A88634BA3FB0213D9080B46E5
:100D4C009B000B445B00D31A9BB2DBB21946032009
:100D5C00FFF7D4FA5A4B1B88002B40F00F81564BEF
:100D6C0002221A700AE1554B1B88013B9AB2534B75
:100D7C001A80554B1B88013B9AB2534B1A800220A8
:100D8C00FFF774FD0120FFF74BFD4C4B1B884D4AC0
:100D9C00A2FB0323DB089BB2DBB219460020FFF752
:100DAC00ADFA464B1A88474BA3FB0213D9080B46E6
:100DBC009B000B445B00D31A9BB2DBB2194601209B
:100DCC00FFF79CFA404B1B883E4AA2FB0323DB082F
:100DDC009BB2DBB219460220FFF790FA3A4B1A8805
:100DEC00384BA3FB0213D9080B469B000B445B004A
:100DFC00D31A9BB2DBB219460320FFF77FFA324BB2
:100E0C001B88002B40F0BC802B4B03221A70B7E0E0
:100E1C002E4B1B88013B9AB22C4B1A802C4B1B88F7
:100E2C00013B9AB22A4B1A800220FFF7F9FC0120F1
:100E3C00FFF742FD264B1B88224AA2FB0323DB084B
:100E4C009BB2DBB219460020FFF758FA204B1A88E8
:100E5C001C4BA3FB0213D9080B469B000B445B00F5
:100E6C00D31A9BB2DBB219460120FFF747FA174B96
:100E7C001B88144AA2FB0323DB089BB2DBB2194686
:100E8C000220FFF73BFA114B1A880E4BA3FB0213FF
:100E9C00D9080B469B000B445B00D31A9BB2DBB208
:100EAC0019460320FFF72AFA094B1B88002B69D13E
:100EBC00014B04221A7065E0C4000020B000002031
:100ECC00BA000020CDCCCCCCB6000020B200002063
:100EDC00B80000202E4B1B88013B9AB22C4B1A8079
:100EEC002C4B1B88013B9AB22A4B1A800220FFF72D
:100EFC0097FC0120FFF7BAFC264B1B88264AA2FB65
:100F0C000323DB089BB2DBB219460020FFF7F6F98E
:100F1C00204B1A88204BA3FB0213D9080B469B00CD
:100F2C000B445B00D31A9BB2DBB219460120FFF7CE
:100F3C00E5F9174B1B88184AA2FB0323DB089BB26D
:100F4C00DBB219460220FFF7D9F9114B1A88124B64
:100F5C00A3FB0213D9080B469B000B445B00D31A6E
:100F6C009BB2DBB219460320FFF7C8F9094B1B886B
:100F7C00002B09D1094B01221A7005E000BF04E0D7
:100F8C0000BF02E000BF00E000BF00BF80BD00BF9B
:100F9C00B2000020B4000020CDCCCCCCC40000208A
:100FAC0080B500AF294B1B78022B2AD0022B4BDCCF
:100FBC00002B02D0012B04D046E0244B01221A70E6
:100FCC0042E00120FFF778FC0220FFF729FC022009
:100FDC00FFF760F90346002B02D01D4B01221A705B
:100FEC001B4B1B78012B2CD10220FFF753F9034626
:100FFC00002B26D1164B00221A70144B02221A70A9
:10100C001FE00220FFF758FC0120FFF709FC02202B
:10101C00FFF740F90346002B02D00D4B01221A704A
:10102C000B4B1B78002B0ED00220FFF733F9034635
:10103C00002B08D1064B00221A70044B01221A70A7
:10104C0001E000BF00E000BF00BF80BDC500002074
:10105C00BE00002080B400AF0E4B1B881A460E4B0E
:10106C001B8819460D4B1B880B449A420CD00C4B19
:10107C001B881A460B4B1B8819460B4B1B880B44C1
:10108C009A4201D0012300E00023DBB21846BD4692
:10109C0080BC7047B0000020B4000020B8000020D5
:1010AC00B2000020B6000020BA00002080B582B04B
:1010BC0000AF78600120FFF7EDF80346002B02D05B
:1010CC00334B01221A70324B1B78002B18D00120A5
:1010DC00FFF7E0F80346002B12D12E4B1B8801338F
:1010EC002D4A82FB03125111DA178A1A642101FB73
:1010FC0002F29A1A92B2274B1A80254B00221A70D0
:10110C000120FFF7E1F80346002B23D0234B1B787B
:10111C005A1C234B83FB02135910D317C91A0B46C5
:10112C009B000B44D11ACAB21C4B1A701B4B1B7878
:10113C00002B0FD1174B1B880133174A82FB03126C
:10114C005111DA178A1A642101FB02F29A1A92B22F
:10115C00104B1A800220FFF79DF80346002B02D09B
:10116C00104B01221A700F4B1B78002B0CD0022055
:10117C00FFF790F80346002B06D1064B1A887B68C4
:10118C001A80084B00221A7000BF0837BD4680BD7C
:10119C00BD000020C00000201F85EB51C2000020C4
:1011AC0067666666BE00002080B500AFBA4B1B7840
:1011BC00062B00F26E8101A252F823F029120008CE
:1011CC00E51100084712000897120008BF13000829
:1011DC002D13000851140008FFF7EAFAFFF700FB83
:1011EC000020FFF757F80346002B02D0AB4B01222F
:1011FC001A70AA4B1B78002B00F040810020FFF7DF
:10120C0049F80346002B40F03981A44B00221A7098
:10121C00FFF70AFDA04B02221A702FE1FFF704FD25
:10122C00FFF718FF0346002B03D09B4B01221A70CB
:10123C002FE1994B02221A702BE1994B1B78002B52
:10124C0004D0FFF721FD6420FFF7CCFB0020FFF753
:10125C0021F80346002B02D0904B01221A708F4BC1
:10126C001B78002B00F00C810020FFF713F80346CD
:10127C00002B40F00581894B00221A70894B00220B
:10128C001A80854B03221A70FAE0FFF79DFAFFF7DC
:10129C0039FB844B1B88844AA2FB0323DB089BB2DB
:1012AC00DBB219460020FFF729F87E4B1A887E4BDB
:1012BC00A3FB0213D9080B469B000B445B00D31A0B
:1012CC009BB2DBB219460120FFF718F8002102206F
:1012DC00FFF714F801210320FFF710F87348FFF70C
:1012EC00E5FE0020FEF7D6FF0346002B02D06B4B29
:1012FC0001221A70694B1B78002B00F0C380002070
:10130C00FEF7C8FF0346002B40F0BC80634B002265
:10131C001A70644B00221A805F4B05221A70B1E0E0
:10132C00FFF752FAFFF716FB5E4B1B885E4AA2FBD7
:10133C000323DB089BB2DBB219460020FEF7DEFF6D
:10134C00584B1A88584BA3FB0213D9080B469B0029
:10135C000B445B00D31A9BB2DBB219460120FEF79B
:10136C00CDFF00210220FEF7C9FF02210320FEF76A
:10137C00C5FF4F48FFF79AFE0020FEF78BFF034690
:10138C00002B02D0454B01221A70444B1B78002BCA
:10139C007AD00020FEF77EFF0346002B74D13F4B22
:1013AC0000221A703F4B00221A803B4B04221A7009
:1013BC006AE0FFF709FAFFF7B9FA3A4B1B883A4A89
:1013CC00A2FB0323DB089BB2DBB219460020FEF71D
:1013DC0095FF344B1A88344BA3FB0213D9080B46E8
:1013EC009B000B445B00D31A9BB2DBB21946012065
:1013FC00FEF784FF00210220FEF780FF032103206B
:10140C00FEF77CFF2B48FFF751FE0020FEF742FF52
:10141C000346002B02D0214B01221A701F4B1B7864
:10142C00002B33D00020FEF735FF0346002B2DD1C7
:10143C001A4B00221A701B4B00221A80164B0622E4
:10144C001A7023E0FFF7ACFD0020FEF723FF0346E4
:10145C00002B02D0114B01221A70104B1B78002B61
:10146C0016D00020FEF716FF0346002B10D10B4BB5
:10147C0000221A70084B00221A7009E000BF08E025
:10148C0000BF06E000BF04E000BF02E000BF00E0C8
:10149C0000BF00BF80BD00BFC3000020BC00002007
:1014AC0096000020C0000020CDCCCCCC0400002045
:1014BC000800002006000020FFF79AFB0B480C499F
:1014CC000C4A002302E0D458C4500433C4188C4294
:1014DC00F9D3094A094C002301E013600432A242FB
:1014EC00FBD301F029FBFFF74BF8704700000020FD
:1014FC0014000020DC2B000814000020CC0000207D
:10150C00FEE7000080B500AF084B1B68074A43F0AC
:10151C0010031360032000F047F90F2000F008F8C7
:10152C00FFF7DEFA0023184680BD00BF0020024002
:10153C0080B582B000AF7860124B1A68124B1B78E2
:10154C0019464FF47A73B3FBF1F3B2FBF3F318467D
:10155C0000F05FF90346002B01D001230EE07B68FD
:10156C000F2B0AD8002279684FF0FF3000F027F9D2
:10157C00064A7B681360002300E0012318460837F5
:10158C00BD4680BD00000020100000200C00002093
:10159C0080B400AF054B1B781A46054B1B681344EF
:1015AC00034A136000BFBD4680BC7047100000208A
:1015BC00C800002080B400AF024B1B681846BD4623
:1015CC0080BC7047C800002080B584B000AF786044
:1015DC00FFF7F0FFB8607B68FB60FB68B3F1FF3F7F
:1015EC0005D00A4B1B781A46FB681344FB6000BFFE
:1015FC00FFF7E0FF0246BB68D31AFA689A42F7D8A5
:10160C0000BF00BF1037BD4680BD00BF10000020DA
:10161C0080B485B000AF78607B6803F00703FB6093
:10162C000C4BDB68BB60BA684FF6FF031340BB6022
:10163C00FB681A02BB68134343F0BF6343F40033E7
:10164C00BB60044ABB68D36000BF1437BD4680BC86
:10165C00704700BF00ED00E080B400AF044BDB68C6
:10166C001B0A03F007031846BD4680BC704700BF39
:10167C0000ED00E080B483B000AF0346FB7197F936
:10168C000730002B0BDBFB7903F01F02064997F99F
:10169C0007305B09012000FA02F241F8232000BF59
:1016AC000C37BD4680BC704700E100E080B483B0CD
:1016BC0000AF03463960FB7197F90730002B0ADB4A
:1016CC003B68DAB20C4997F907301201D2B20B44DD
:1016DC0083F800230AE03B68DAB20849FB7903F08F
:1016EC000F03043B1201D2B20B441A7600BF0C3725
:1016FC00BD4680BC704700BF00E100E000ED00E09B
:10170C0080B489B000AFF860B9607A60FB6803F010
:10171C000703FB61FB69C3F10703042B28BF0423F8
:10172C00BB61FB690433062B02D9FB69033B00E068
:10173C0000237B614FF0FF32BB6902FA03F3DA43FB
:10174C00BB681A407B699A404FF0FF317B6901FA04
:10175C0003F3D9437B680B40134318462437BD462B
:10176C0080BC704780B582B000AF78607B68013B6D
:10177C00B3F1807F01D301230FE00A4A7B68013B60
:10178C0053600F214FF0FF30FFF790FF054B002205
:10179C009A60044B07221A60002318460837BD468E
:1017AC0080BD00BF10E000E080B582B000AF786073
:1017BC007868FFF72DFF00BF0837BD4680BD80B5A8
:1017CC0086B000AF0346B9607A60FB7300237B617F
:1017DC00FFF742FF78617A68B9687869FFF790FF84
:1017EC00024697F90F3011461846FFF75FFF00BF0E
:1017FC001837BD4680BD80B582B000AF0346FB7183
:10180C0097F907301846FFF735FF00BF0837BD467C
:10181C0080BD80B582B000AF78607868FFF7A2FF1A
:10182C00034618460837BD4680BD000080B48BB017
:10183C0000AF7860396000237B6200233B6261E17A
:10184C0001227B6A02FA03F3FB613B681B68FA69AD
:10185C001340BB61BA69FB699A4240F050813B6806
:10186C005B68974A93425ED0954A934275D8954AE5
:10187C00934258D0934A93426FD8934A934252D092
:10188C00914A934269D8914A93424CD08F4A9342E1
:10189C0063D88F4A934246D08D4A93425DD8122B1F
:1018AC002AD8122B59D801A252F823F03319000868
:1018BC000D1900081F1900086119000867190008A4
:1018CC0067190008671900086719000867190008EC
:1018DC0067190008671900086719000867190008DC
:1018EC0067190008671900086719000867190008CC
:1018FC001519000829190008764A934213D02CE0D8
:10190C003B68DB683B6229E03B68DB6804333B6285
:10191C0024E03B68DB6808333B621FE03B68DB6814
:10192C000C333B621AE03B689B68002B02D104230A
:10193C003B6213E03B689B68012B05D108233B629B
:10194C007B68FA691A6109E008233B627B68FA69D3
:10195C005A6103E000233B6200E000BFBB69FF2B30
:10196C0001D87B6801E07B6804337B61BB69FF2B8A
:10197C0002D87B6A9B0002E07B6A083B9B003B61C0
:10198C007B691A680F213B6901FA03F3DB431A40A8
:10199C00396A3B6901FA03F31A437B691A603B68A5
:1019AC005B6803F08053002B00F0A9804A4B9B69C5
:1019BC00494A43F001039361474B9B6903F00103D0
:1019CC00BB60BB68454A7B6A9B08023352F82330E4
:1019DC00FB607B6A03F003039B000F2202FA03F304
:1019EC00DB43FA681340FB607B683D4A93420DD0A1
:1019FC007B683C4A934207D07B683B4A934201D1B7
:101A0C00022304E0032302E0012300E000237A6AAE
:101A1C0002F0030292009340FA681343FB602F49D3
:101A2C007B6A9B080233FA6841F823203B685B68A9
:101A3C0003F48013002B06D02C4B9A682B49BB69FE
:101A4C0013438B6006E0294B9A68BB69DB4327493B
:101A5C0013408B603B685B6803F40013002B06D0CB
:101A6C00224BDA682149BB691343CB6006E01F4B5C
:101A7C00DA68BB69DB431D491340CB603B685B688C
:101A8C0003F40033002B06D0184B5A681749BB6976
:101A9C0013434B6006E0154B5A68BB69DB43134993
:101AAC0013404B603B685B6803F48033002B1FD002
:101ABC000E4B1A680D49BB6913430B601FE000BF46
:101ACC000000321000003110000022100000211024
:101ADC000000121000001110001002400000014024
:101AEC0000080140000C01400010014000040140BE
:101AFC000B4B1A68BB69DB43094913400B607B6ACB
:101B0C0001337B623B681A687B6A22FA03F3002B71
:101B1C007FF496AE00BF00BF2C37BD4680BC70472B
:101B2C000004014080B485B000AF78600B467B8028
:101B3C007B689A687B881340002B02D00123FB73CF
:101B4C0001E00023FB73FB7B18461437BD4680BCB9
:101B5C00704780B483B000AF78600B467B8013462F
:101B6C007B707B78002B03D07A887B681A6103E04A
:101B7C007B881A047B681A6100BF0C37BD4680BC99
:101B8C00704780B485B000AF78600B467B807B6873
:101B9C00DB68FB607A88FB6813401A04FB68D94346
:101BAC007B880B401A437B681A6100BF1437BD4613
:101BBC0080BC704780B586B000AF78607B68002B26
:101BCC0001D1012372E27B681B6803F00103002B37
:101BDC0000F08780924B5B6803F00C03042B0CD055
:101BEC008F4B5B6803F00C03082B12D18C4B5B689A
:101BFC0003F48033B3F5803F0BD1894B1B6803F49E
:101C0C000033002B6CD07B685B68002B68D1012300
:101C1C004CE27B685B68B3F5803F06D1804B1B6858
:101C2C007F4A43F4803313602EE07B685B68002BA3
:101C3C000CD17B4B1B687A4A23F480331360784BAE
:101C4C001B68774A23F4802313601DE07B685B6874
:101C5C00B3F5A02F0CD1724B1B68714A43F480234F
:101C6C0013606F4B1B686E4A43F4803313600BE0B8
:101C7C006B4B1B686A4A23F480331360684B1B68F8
:101C8C00674A23F4802313607B685B68002B13D0B6
:101C9C00FFF790FC386108E0FFF78CFC02463B69CB
:101CAC00D31A642B01D9032300E25D4B1B6803F4A8
:101CBC000033002BF0D014E0FFF77CFC386108E017
:101CCC00FFF778FC02463B69D31A642B01D9032336
:101CDC00ECE1534B1B6803F40033002BF0D100E014
:101CEC0000BF7B681B6803F00203002B63D04C4BD6
:101CFC005B6803F00C03002B0BD0494B5B6803F0C3
:101D0C000C03082B1CD1464B5B6803F48033002B6F
:101D1C0016D1434B1B6803F00203002B05D07B68E4
:101D2C001B69012B01D00123C0E13D4B1B6823F043
:101D3C00F8027B685B69DB00394913430B603AE0BE
:101D4C007B681B69002B20D0364B01221A60FFF7F1
:101D5C0031FC386108E0FFF72DFC02463B69D31AD1
:101D6C00022B01D90323A1E12D4B1B6803F00203C5
:101D7C00002BF0D02A4B1B6823F0F8027B685B69C0
:101D8C00DB00274913430B6015E0264B00221A6039
:101D9C00FFF710FC386108E0FFF70CFC02463B69CA
:101DAC00D31A022B01D9032380E11D4B1B6803F0CE
:101DBC000203002BF0D17B681B6803F00803002B97
:101DCC003AD07B689B69002B19D0174B01221A6003
:101DDC00FFF7F0FB386108E0FFF7ECFB02463B69CC
:101DEC00D31A022B01D9032360E10D4B5B6A03F07C
:101DFC000203002BF0D0012000F09CFA1CE00A4BEF
:101E0C0000221A60FFF7D6FB38610FE0FFF7D2FB18
:101E1C0002463B69D31A022B08D9032346E100BFC3
:101E2C00001002400000424280044242924B5B6A26
:101E3C0003F00203002BE9D17B681B6803F0040359
:101E4C00002B00F0A6800023FB758B4BDB6903F0A5
:101E5C008053002B0DD1884BDB69874A43F08053AC
:101E6C00D361854BDB6903F08053BB60BB680123F6
:101E7C00FB75824B1B6803F48073002B18D17F4BCE
:101E8C001B687E4A43F480731360FFF793FB386141
:101E9C0008E0FFF78FFB02463B69D31A642B01D98C
:101EAC00032303E1754B1B6803F48073002BF0D004
:101EBC007B68DB68012B06D16F4B1B6A6E4A43F0C3
:101ECC00010313622DE07B68DB68002B0CD16A4B9D
:101EDC001B6A694A23F001031362674B1B6A664A4B
:101EEC0023F0040313621CE07B68DB68052B0CD128
:101EFC00614B1B6A604A43F0040313625E4B1B6A1E
:101F0C005D4A43F0010313620BE05B4B1B6A5A4AB8
:101F1C0023F001031362584B1B6A574A23F0040346
:101F2C0013627B68DB68002B15D0FFF743FB38612D
:101F3C000AE0FFF73FFB02463B69D31A41F28832B5
:101F4C00934201D90323B1E04B4B1B6A03F002030C
:101F5C00002BEED014E0FFF72DFB38610AE0FFF701
:101F6C0029FB02463B69D31A41F28832934201D9CC
:101F7C0003239BE0404B1B6A03F00203002BEED1C2
:101F8C00FB7D012B05D13C4BDB693B4A23F0805395
:101F9C00D3617B68DB69002B00F08780364B5B6874
:101FAC0003F00C03082B61D07B68DB69022B46D154
:101FBC00334B00221A60FFF7FDFA386108E0FFF797
:101FCC00F9FA02463B69D31A022B01D903236DE0BF
:101FDC00294B1B6803F00073002BF0D17B681B6A44
:101FEC00B3F5803F08D1244B5B6823F400327B6847
:101FFC009B68214913434B601F4B5B6823F474129D
:10200C007B68196A7B685B6A0B431B4913434B6003
:10201C001B4B01221A60FFF7CDFA386108E0FFF77D
:10202C00C9FA02463B69D31A022B01D903233DE0BE
:10203C00114B1B6803F00073002BF0D035E0104BF4
:10204C0000221A60FFF7B6FA386108E0FFF7B2FA1F
:10205C0002463B69D31A022B01D9032326E0064B17
:10206C001B6803F00073002BF0D11EE07B68DB696A
:10207C00012B07D1012319E0001002400070004031
:10208C00600042420B4B5B68FB60FB6803F48032E0
:10209C007B681B6A9A4206D1FB6803F470127B685A
:1020AC005B6A9A4201D0012300E0002318461837DE
:1020BC00BD4680BD0010024080B584B000AF786092
:1020CC0039607B68002B01D10123D0E06A4B1B687F
:1020DC0003F007033A689A4210D9674B1B6823F048
:1020EC00070265493B6813430B60634B1B6803F0A5
:1020FC0007033A689A4201D00123B8E07B681B6859
:10210C0003F00203002B20D07B681B6803F0040350
:10211C00002B05D0594B5B68584A43F4E06353607D
:10212C007B681B6803F00803002B05D0534B5B68DE
:10213C00524A43F460535360504B5B6823F0F002F7
:10214C007B689B684D4913434B607B681B6803F0AD
:10215C000103002B40D07B685B68012B07D1474BF8
:10216C001B6803F40033002B15D101237FE07B683F
:10217C005B68022B07D1414B1B6803F00073002BEB
:10218C0009D1012373E03D4B1B6803F00203002BC4
:10219C0001D101236BE0394B5B6823F003027B68B0
:1021AC005B68364913434B60FFF704FAF8600AE0AA
:1021BC00FFF700FA0246FB68D31A41F288329342C9
:1021CC0001D9032353E02D4B5B6803F00C027B68B1
:1021DC005B689B009A42EBD1274B1B6803F007030B
:1021EC003A689A4210D2244B1B6823F0070222490A
:1021FC003B6813430B60204B1B6803F007033A68E2
:10220C009A4201D0012332E07B681B6803F004037F
:10221C00002B08D0194B5B6823F4E0627B68DB6809
:10222C00164913434B607B681B6803F00803002BB3
:10223C0009D0124B5B6823F460527B681B69DB008E
:10224C000E4913434B6000F021F802460B4B5B68C0
:10225C001B0903F00F030A49CB5C22FA03F3094A6A
:10226C001360094B1B681846FFF762F900231846E8
:10227C001037BD4680BD00BF002002400010024058
:10228C00B02B0008000000200C00002080B487B0A8
:10229C0000AF0023FB600023BB6000237B610023A5
:1022AC007B6000233B611E4B5B68FB60FB6803F0AB
:1022BC000C03042B02D0082B03D027E0194B3B61F5
:1022CC0027E0FB689B0C03F00F03174AD35C7B6081
:1022DC00FB6803F48033002B10D0114B5B685B0C54
:1022EC0003F00103114AD35CBB607B680D4A03FB0E
:1022FC0002F2BB68B2FBF3F37B6104E07B680C4A2F
:10230C0002FB03F37B617B693B6102E0054B3B61A4
:10231C0000BF3B6918461C37BD4680BC704700BFE8
:10232C000010024000127A00C02B0008D02B0008CD
:10233C0000093D0080B485B000AF78600A4B1B6883
:10234C000A4AA2FB03235B0A7A6802FB03F3FB60D5
:10235C0000BFFB685A1EFA60002BF9D100BF00BF0A
:10236C001437BD4680BC704700000020D34D62106E
:10237C0080B582B000AF78607B68002B01D101235F
:10238C0041E07B6893F83D30DBB2002B06D17B68D3
:10239C00002283F83C207868FEF7D4FB7B6802228D
:1023AC0083F83D207B681A687B6804331946104615
:1023BC0000F056FA7B68012283F846207B680122E4
:1023CC0083F83E207B68012283F83F207B68012242
:1023DC0083F840207B68012283F841207B6801222E
:1023EC0083F842207B68012283F843207B6801221A
:1023FC0083F844207B68012283F845207B68012206
:10240C0083F83D20002318460837BD4680BD0000E8
:10241C0080B485B000AF78607B6893F83D30DBB258
:10242C00012B01D0012335E07B68022283F83D208B
:10243C007B681B68DA687B681B6842F00102DA6013
:10244C007B681B68164A934209D07B681B68B3F102
:10245C00804F04D07B681B68124A934211D17B6871
:10246C001B689B6803F00703FB60FB68062B10D00E
:10247C007B681B681A687B681B6842F001021A6053
:10248C0007E07B681B681A687B681B6842F00102D6
:10249C001A60002318461437BD4680BC704700BF35
:1024AC00002C01400004004080B584B000AF78607F
:1024BC007B681B68DB68FB607B681B681B69BB6007
:1024CC00BB6803F00203002B20D0FB6803F002036F
:1024DC00002B1BD07B681B686FF002021A617B68B3
:1024EC0001221A777B681B689B6903F00303002B9E
:1024FC0003D0786800F098F905E0786800F08BF963
:10250C00786800F09AF97B6800221A77BB6803F0B0
:10251C000403002B20D0FB6803F00403002B1BD01A
:10252C007B681B686FF004021A617B6802221A77C1
:10253C007B681B689B6903F44073002B03D078689D
:10254C0000F072F905E0786800F065F9786800F041
:10255C0074F97B6800221A77BB6803F00803002B20
:10256C0020D0FB6803F00803002B1BD07B681B6892
:10257C006FF008021A617B6804221A777B681B686B
:10258C00DB6903F00303002B03D0786800F04CF9EF
:10259C0005E0786800F03FF9786800F04EF97B6848
:1025AC0000221A77BB6803F01003002B20D0FB68C5
:1025BC0003F01003002B1BD07B681B686FF010021C
:1025CC001A617B6808221A777B681B68DB6903F445
:1025DC004073002B03D0786800F026F905E078688A
:1025EC0000F019F9786800F028F97B6800221A7756
:1025FC00BB6803F00103002B0CD0FB6803F0010354
:10260C00002B07D07B681B686FF001021A61786899
:10261C00FEF750FABB6803F08003002B0CD0FB686C
:10262C0003F08003002B07D07B681B686FF08002DF
:10263C001A61786800F06FFABB6803F04003002B56
:10264C000CD0FB6803F04003002B07D07B681B68A1
:10265C006FF040021A61786800F0F8F8BB6803F07C
:10266C002003002B0CD0FB6803F02003002B07D0B9
:10267C007B681B686FF020021A61786800F042FAE0
:10268C0000BF1037BD4680BD80B584B000AF786008
:10269C0039600023FB737B6893F83C30012B01D12C
:1026AC000223B4E07B68012283F83C207B68022281
:1026BC0083F83D207B681B689B68BB60BB6823F07C
:1026CC007703BB60BB6823F47F43BB607B681B68EC
:1026DC00BA689A603B681B68B3F5005F3ED0B3F5EF
:1026EC00005F00F28780B3F5805F00F08680B3F561
:1026FC00805F7FD8702B1AD0702B7BD8602B50D07A
:10270C00602B77D8502B3CD0502B73D8402B58D003
:10271C00402B6FD8302B64D0302B6BD8202B60D053
:10272C00202B67D8002B5CD0102B5AD062E07B6832
:10273C0018683B6899683B685A683B68DB6800F02E
:10274C006AF97B681B689B68BB60BB6843F07703C6
:10275C00BB607B681B68BA689A604FE07B6818683E
:10276C003B6899683B685A683B68DB6800F053F932
:10277C007B681B689A687B681B6842F480429A608D
:10278C003CE07B6818683B6859683B68DB681A4614
:10279C0000F0CAF87B681B685021184600F021F93C
:1027AC002CE07B6818683B6859683B68DB681A4604
:1027BC0000F0E8F87B681B686021184600F011F9FE
:1027CC001CE07B6818683B6859683B68DB681A46F4
:1027DC0000F0AAF87B681B684021184600F001F94C
:1027EC000CE07B681A683B681B681946104600F0C1
:1027FC00F8F803E00123FB7300E000BF7B680122C3
:10280C0083F83D207B68002283F83C20FB7B184634
:10281C001037BD4680BD80B483B000AF786000BF78
:10282C000C37BD4680BC704780B483B000AF786075
:10283C0000BF0C37BD4680BC704780B483B000AF7E
:10284C00786000BF0C37BD4680BC704780B483B045
:10285C0000AF786000BF0C37BD4680BC70470000ED
:10286C0080B485B000AF786039607B681B68FB6012
:10287C007B682B4A934207D07B68B3F1804F03D01F
:10288C007B68284A934208D1FB6823F07003FB60F5
:10289C003B685B68FA681343FB607B68204A934291
:1028AC0007D07B68B3F1804F03D07B681D4A9342FD
:1028BC0008D1FB6823F44073FB603B68DB68FA6863
:1028CC001343FB60FB6823F080023B685B69134396
:1028DC00FB607B68FA681A603B689A687B68DA620E
:1028EC003B681A687B689A627B680D4A934203D1F5
:1028FC003B681A697B681A637B6801225A617B68A2
:10290C001B6903F00103002B05D07B681B6923F0C6
:10291C0001027B681A6100BF1437BD4680BC70474A
:10292C00002C01400004004080B487B000AFF86078
:10293C00B9607A60FB681B6A7B61FB681B6A23F0D9
:10294C000102FB681A62FB689B693B613B6923F0DF
:10295C00F0033B617B681B013A6913433B617B6964
:10296C0023F00A037B617A69BB6813437B61FB68C4
:10297C003A699A61FB687A691A6200BF1C37BD46D6
:10298C0080BC704780B487B000AFF860B9607A60E3
:10299C00FB681B6A7B61FB681B6A23F01002FB68F7
:1029AC001A62FB689B693B613B6923F470433B6192
:1029BC007B681B033A6913433B617B6923F0A003DB
:1029CC007B61BB681B017A6913437B61FB683A69C5
:1029DC009A61FB687A691A6200BF1C37BD4680BCDD
:1029EC00704780B485B000AF786039607B689B68B5
:1029FC00FB60FB6823F07003FB603A68FB681343D1
:102A0C0043F00703FB607B68FA689A6000BF1437D9
:102A1C00BD4680BC704780B487B000AFF860B96029
:102A2C007A603B60FB689B687B617B6923F47F4326
:102A3C007B613B681A027B681A43BB6813437A6953
:102A4C0013437B61FB687A699A6000BF1C37BD46F3
:102A5C0080BC704780B485B000AF786039607B680B
:102A6C0093F83C30012B01D1022341E07B68012219
:102A7C0083F83C207B68022283F83D207B681B682E
:102A8C005B68FB607B681B689B68BB60FB6823F022
:102A9C007003FB603B681B68FA681343FB607B6840
:102AAC001B68FA685A607B681B68144A934209D009
:102ABC007B681B68B3F1804F04D07B681B68104A9D
:102ACC0093420CD1BB6823F08003BB603B685B680E
:102ADC00BA681343BB607B681B68BA689A607B68F2
:102AEC00012283F83D207B68002283F83C200023E0
:102AFC0018461437BD4680BC704700BF002C0140FF
:102B0C000004004080B483B000AF786000BF0C3785
:102B1C00BD4680BC704780B483B000AF786000BF06
:102B2C000C37BD4680BC704703460244934200D12B
:102B3C00704703F8011BF9E770B500260C4D0D4CDE
:102B4C00641BA410A64209D100F01AF800260A4D05
:102B5C000A4C641BA410A64205D170BD55F8043B69
:102B6C0098470136EEE755F8043B98470136F2E7F3
:102B7C00D42B0008D42B0008D42B0008D82B000829
:102B8C00F8B500BFF8BC08BC9E467047F8B500BF4E
:082B9C00F8BC08BC9E4670471E
:102BA4003F065B4F666D7D077F6F000000000000ED
:102BB40000000000010203040607080902030405DB
:102BC400060708090A0B0C0D0E0F10100102000075
:042BD40031010008C3
:042BD8000D010008E3
:102BDC0000127A000F0003000C000000100000002F
:042BEC0001000000E4
:04000005080014C516
:00000001FF
