:020000040800F2
:1000000000280020C1130008990B00089F0B00086E
:10001000A50B0008AB0B0008B10B000800000000A6
:10002000000000000000000000000000B70B000806
:10003000C30B000800000000CF0B0008DB0B00081A
:10004000091400080914000809140008091400081C
:10005000091400080914000809140008091400080C
:1000600009140008091400080914000809140008FC
:1000700009140008091400080914000809140008EC
:1000800009140008091400080914000809140008DC
:1000900009140008091400080914000809140008CC
:1000A00009140008091400080914000809140008BC
:1000B000E90B0008091400080000000009140008FA
:1000C00009140008000000000000000009140008E6
:1000D00000000000091400080914000800000000D6
:1000E00009140008091400080914000800000000A1
:1000F0000000000000000000000000000000000000
:0C01000000000000000000005FF808F1A3
:10010C0010B5054C237833B9044B13B10448AFF345
:10011C0000800123237010BD14000020000000009B
:10012C00882A000808B5034B1BB103490348AFF3F9
:10013C00008008BD0000000018000020882A00087C
:10014C0080B582B000AF00237B6054E02E4A7B6800
:10015C00134419782D4A7B6813440A461A702C4AAA
:10016C007B6813441978284A7B6813440A461A7032
:10017C007B68DBB2184600F053F8254A7B681344C1
:10018C001A7822497B680B441B789A4230D11F4A5B
:10019C007B68134419781F4A7B6813440A461A700B
:1001AC001C4A7B6813441B78002B17D11A4A7B68B6
:1001BC0013441B78632B0BD8174A7B6813441B78AA
:1001CC000133D9B2144A7B6813440A461A700FE003
:1001DC00124A7B68134401221A7009E00F4A7B68AB
:1001EC00134400221A700C4A7B68134400221A70C4
:1001FC007B6801337B607B68022BA7DD00BF00BFEF
:10020C000837BD4680BD00BF3800002034000020F8
:10021C003C00002030000020440000204000002062
:10022C0090B583B000AF0346FB71FB79022B1CD059
:10023C00022B25DC002B02D0012B0BD020E0FC790B
:10024C004FF48071114801F0EBFB03461A46104B3A
:10025C001A5516E0FC794FF400710C4801F0E0FBE4
:10026C0003461A460A4B1A550BE0FC794FF4806191
:10027C00064801F0D5FB03461A46054B1A5500E01B
:10028C0000BF00BF0C37BD4690BD00BF000C014045
:10029C003C00002080B483B000AF0346FB71FB79B7
:1002AC00032B01D9002307E0FB79064AD35C002B12
:1002BC000CBF01230023DBB218460C37BD4680BCB3
:1002CC00704700BF3000002080B483B000AF0346FD
:1002DC00FB71FB79032B01D9002307E0FB79064A5C
:1002EC00D35C012B0CBF01230023DBB218460C3767
:1002FC00BD4680BC704700BF4000002080B483B076
:10030C0000AF03460A46FB711346BB71FB790449E7
:10031C00BA79CA5400BF0C37BD4680BC704700BFC9
:10032C004800002080B500AF514B1B78032B00F226
:10033C008F8001A252F823F05503000897030008A0
:10034C00D90300081B04000800224FF4007149482F
:10035C0001F07DFB01224FF48061464801F077FBF0
:10036C0001224FF40061434801F071FB01224FF46C
:10037C008051404801F06BFB3D4B1B781A463E4BBD
:10038C009B5C184600F07AF863E001224FF4007190
:10039C00384801F05CFB00224FF48061354801F0D5
:1003AC0056FB01224FF40061324801F050FB012250
:1003BC004FF480512F4801F04AFB2D4B1B781A4605
:1003CC002D4B9B5C184600F059F842E001224FF48B
:1003DC000071284801F03BFB01224FF48061254855
:1003EC0001F035FB00224FF40061224801F02FFB95
:1003FC0001224FF480511F4801F029FB1C4B1B7844
:10040C001A461D4B9B5C184600F038F821E001227F
:10041C004FF40071174801F01AFB01224FF4806170
:10042C00144801F014FB01224FF40061114801F053
:10043C000EFB00224FF480510E4801F008FB0C4BD0
:10044C001B781A460C4B9B5C184600F017F800E022
:10045C0000BF074B1B7801335A4203F0030302F031
:10046C00030258BF5342DAB2014B1A7000BF80BD71
:10047C0047000020000801404800002080B582B0F1
:10048C0000AF0346FB71FB793B4AD35C03F00103DD
:10049C00002B0CBF01230023DBB21A460121374885
:1004AC0001F0D5FAFB79344AD35C5B08DBB203F07C
:1004BC000103002B0CBF01230023DBB21A460221DF
:1004CC002E4801F0C4FAFB792B4AD35C9B08DBB2B3
:1004DC0003F00103002B0CBF01230023DBB21A46EF
:1004EC000421264801F0B3FAFB79234AD35CDB08DC
:1004FC00DBB203F00103002B0CBF01230023DBB2A2
:10050C001A4608211D4801F0A2FAFB791A4AD35C5D
:10051C001B09DBB203F00103002B0CBF01230023EA
:10052C00DBB21A461021154801F091FAFB79124AF8
:10053C00D35C5B09DBB203F00103002B0CBF01237E
:10054C000023DBB21A4620210C4801F080FAFB791B
:10055C00094AD35C9B09DBB203F00103002B0CBFEF
:10056C0001230023DBB21A464021044801F06FFA44
:10057C0000BF0837BD4680BDA02A0008000C014012
:10058C0080B500AF00F03CFF00F022F800F0A8F8B6
:10059C0000F05AF80C4801F0B9FE00F02FFB642073
:1005AC0000F020FA322000F0E9F90A2000F000FAFD
:1005BC00064B1B78002BFBD000F096FDFFF7B2FE2C
:1005CC000A2000F0F5F9F3E74C000020950000201C
:1005DC0080B590B000AF07F118032822002118460F
:1005EC0002F020FA3B1D00221A605A609A60DA6011
:1005FC001A610223BB610123BB621023FB6200233F
:10060C007B6307F11803184601F052FA0346002BDE
:10061C0001D000F0C7F80F237B600023BB600023E0
:10062C00FB6000233B6100237B613B1D00211846CE
:10063C0001F0C0FC0346002B01D000F0B3F800BF62
:10064C004037BD4680BD000080B586B000AF07F1D5
:10065C00080300221A605A609A60DA603B46002256
:10066C001A605A601D4B4FF080421A601B4B41F6CA
:10067C003F725A60194B00229A60184B0922DA60BB
:10068C00164B00221A61154B00229A61134801F097
:10069C00EDFD0346002B01D000F084F84FF480539D
:1006AC00BB6007F1080319460C4801F06BFF0346C9
:1006BC00002B01D000F076F800233B6000237B6018
:1006CC003B461946054802F043F90346002B01D07E
:1006DC0000F068F800BF1837BD4680BD4C00002004
:1006EC0080B586B000AF07F1080300221A605A608B
:1006FC009A60DA60284B9B69274A43F004039361A4
:10070C00254B9B6903F004037B607B68224B9B6940
:10071C00214A43F0080393611F4B9B6903F00803C4
:10072C003B603B68002241F67E611C4801F08FF96A
:10073C0000227F211A4801F08AF941F67E63BB60E2
:10074C000123FB6000233B6102237B6107F108035B
:10075C001946124800F0E8FF7F23BB600123FB60C1
:10076C0000233B6102237B6107F1080319460C4807
:10077C0000F0DAFF4FF4E063BB600023FB60002362
:10078C003B6107F108031946054800F0CDFF00BF97
:10079C001837BD4680BD00BF001002400008014064
:1007AC00000C014080B400AF72B600BFFEE7000041
:1007BC0080B500AF01227E21024801F048F900BF4C
:1007CC0080BD00BF0008014080B500AF00227E2133
:1007DC00024801F03CF900BF80BD00BF0008014099
:1007EC0080B500AF00210020FFF788FD002101201B
:1007FC00FFF784FD00210220FFF780FD002103207C
:10080C00FFF77CFD00BF80BD80B500AFFFF7D0FFC8
:10081C004FF47A7000F056FEFFF7D6FF00BF80BD94
:10082C0080B582B000AF0346FB71FB79012B0AD176
:10083C00012208210C4801F00AF9002206210A487D
:10084C0001F005F90CE0FB79022B09D101224021C2
:10085C00054801F0FCF800223021034801F0F7F8BC
:10086C0000BF0837BD4680BD0008014080B582B08E
:10087C0000AF0346FB71FB79012B0AD10122042145
:10088C000C4801F0E4F800220A210A4801F0DFF8D4
:10089C000CE0FB79022B09D101222021054801F043
:1008AC00D6F800225021034801F0D1F800BF0837D8
:1008BC00BD4680BD0008014080B582B000AF034644
:1008CC00FB71FB79012B0AD1012202210C4801F0AA
:1008DC00BEF800220C210A4801F0B9F80CE0FB79B3
:1008EC00022B09D101221021054801F0B0F8002299
:1008FC006021034801F0ABF800BF0837BD4680BD4E
:10090C000008014080B500AF064B1B78002B06D0C9
:10091C004821054801F0B3F8322000F02FF800BF51
:10092C0080BD00BF940000200008014080B500AFDE
:10093C00064B1B78002B06D02421054801F09FF8AC
:10094C00322000F01BF800BF80BD00BF94000020D7
:10095C000008014080B500AF064B1B78002B06D079
:10096C001221054801F08BF8322000F007F800BF87
:10097C0080BD00BF940000200008014080B483B00B
:10098C0000AF7860074A7B681360064B1B68064A09
:10099C001360064B00221A7000BF0C37BD4680BC9A
:1009AC00704700BFA4000020980000209400002095
:1009BC0080B483B000AF7860074A7B681360064B45
:1009CC001B68064A1360064B00221A7000BF0C37D6
:1009DC00BD4680BC704700BFA80000209C000020D2
:1009EC009500002080B483B000AF7860074A7B6824
:1009FC001360064B1B68064A1360064B00221A70E4
:100A0C0000BF0C37BD4680BC704700BFAC00002057
:100A1C00A00000209600002080B400AF094B1B689A
:100A2C00002B0BDD074B1B68013B064A1360054B83
:100A3C001B68002B02DC044B01221A7000BFBD4660
:100A4C0080BC7047980000209400002080B400AF58
:100A5C00094B1B68002B0BDD074B1B68013B064A3F
:100A6C001360054B1B68002B02DC044B01221A702F
:100A7C0000BFBD4680BC70479C0000209500002044
:100A8C0080B400AF094B1B68002B0BDD074B1B68B8
:100A9C00013B064A1360054B1B68002B02DC044B20
:100AAC0001221A7000BFBD4680BC7047A000002018
:100ABC009600002080B582B000AF78607B681B6820
:100ACC00B3F1804F07D1FFF7A7FFFFF7BFFFFFF789
:100ADC00D7FFFFF735FB00BF0837BD4680BD0000D0
:100AEC0080B485B000AF154B9B69144A43F00103E9
:100AFC009361124B9B6903F00103BB60BB680F4B06
:100B0C00DB690E4A43F08053D3610C4BDB6903F075
:100B1C0080537B607B680A4B5B68FB60FB6823F04F
:100B2C00E063FB60FB6843F08063FB60044AFB6896
:100B3C00536000BF1437BD4680BC704700100240A4
:100B4C000000014080B584B000AF78607B681B6802
:100B5C00B3F1804F13D10C4BDB690B4A43F001030B
:100B6C00D361094BDB6903F00103FB60FB680022D6
:100B7C0000211C2000F0A1FD1C2000F0BAFD00BFDC
:100B8C001037BD4680BD00BF0010024080B400AFDE
:100B9C00FEE780B400AFFEE780B400AFFEE780B4A0
:100BAC0000AFFEE780B400AFFEE780B400AF00BF3B
:100BBC00BD4680BC704780B400AF00BFBD4680BC52
:100BCC00704780B400AF00BFBD4680BC704780B595
:100BDC0000AF00F05BFC00BF80BD000080B500AF33
:100BEC00024801F0DFFB00BF80BD00BF4C000020BD
:100BFC0080B400AF00BFBD4680BC704780B500AF6D
:100C0C00044B00221A70044B00221A7000F006F8F4
:100C1C0000BF80BDC3000020C400002080B400AF22
:100C2C000D4B1A880D4B1A800B4B1A880C4B1A80E3
:100C3C000C4B1A880C4B1A800A4B1A880B4B1A80D7
:100C4C000B4B1A880B4B1A80094B1A880A4B1A80CB
:100C5C0000BFBD4680BC704704000020B0000020DF
:100C6C00B200002006000020B4000020B6000020D6
:100C7C0008000020B8000020BA00002080B500AFAA
:100C8C008A4B1B78042B00F27A8101A252F823F0D4
:100C9C00B10C0008BD0C0008670D0008110E00080F
:100CAC00D50E0008FFF7B0FD804B01221A7066E1EB
:100CBC007F4B1B88013B9AB27D4B1A807D4B1B8866
:100CCC00013B9AB27B4B1A800220FFF7F5FD012005
:100CDC00FFF7A6FD764B1B88774AA2FB0323DB08A4
:100CEC009BB2DBB219460020FFF708FB704B1A8849
:100CFC00714BA3FB0213D9080B469B000B445B0002
:100D0C00D31A9BB2DBB219460120FFF7F7FA694BF5
:100D1C001B88694AA2FB0323DB089BB2DBB2194692
:100D2C000220FFF7EBFA634B1A88634BA3FB021309
:100D3C00D9080B469B000B445B00D31A9BB2DBB269
:100D4C0019460320FFF7DAFA5A4B1B88002B40F0A8
:100D5C000F81564B02221A700AE1554B1B88013B3E
:100D6C009AB2534B1A80554B1B88013B9AB2534B8A
:100D7C001A800220FFF77AFD0120FFF751FD4C4B42
:100D8C001B884D4AA2FB0323DB089BB2DBB219463E
:100D9C000020FFF7B3FA464B1A88474BA3FB02130C
:100DAC00D9080B469B000B445B00D31A9BB2DBB2F9
:100DBC0019460120FFF7A2FA404B1B883E4AA2FBC2
:100DCC000323DB089BB2DBB219460220FFF796FA2D
:100DDC003A4B1A88384BA3FB0213D9080B469B00DD
:100DEC000B445B00D31A9BB2DBB219460320FFF70E
:100DFC0085FA324B1B88002B40F0BC802B4B032216
:100E0C001A70B7E02E4B1B88013B9AB22C4B1A8000
:100E1C002C4B1B88013B9AB22A4B1A800220FFF7FD
:100E2C00FFFC0120FFF748FD264B1B88224AA2FB42
:100E3C000323DB089BB2DBB219460020FFF75EFAF6
:100E4C00204B1A881C4BA3FB0213D9080B469B00A2
:100E5C000B445B00D31A9BB2DBB219460120FFF79F
:100E6C004DFA174B1B88144AA2FB0323DB089BB2D9
:100E7C00DBB219460220FFF741FA114B1A880E4BD0
:100E8C00A3FB0213D9080B469B000B445B00D31A3F
:100E9C009BB2DBB219460320FFF730FA094B1B88D3
:100EAC00002B69D1014B04221A7065E0C4000020AC
:100EBC00B0000020BA000020CDCCCCCCB600002075
:100ECC00B2000020B80000202E4B1B88013B9AB2C8
:100EDC002C4B1A802C4B1B88013B9AB22A4B1A8044
:100EEC000220FFF79DFC0120FFF7C0FC264B1B885E
:100EFC00264AA2FB0323DB089BB2DBB21946002077
:100F0C00FFF7FCF9204B1A88204BA3FB0213D908DE
:100F1C000B469B000B445B00D31A9BB2DBB2194609
:100F2C000120FFF7EBF9174B1B88184AA2FB032390
:100F3C00DB089BB2DBB219460220FFF7DFF9114B3D
:100F4C001A88124BA3FB0213D9080B469B000B44C7
:100F5C005B00D31A9BB2DBB219460320FFF7CEF924
:100F6C00094B1B88002B09D1094B01221A7005E093
:100F7C0000BF04E000BF02E000BF00E000BF00BF04
:100F8C0080BD00BFB2000020B4000020CDCCCCCC82
:100F9C00C400002080B400AF0E4B1B881A460E4BC9
:100FAC001B8819460D4B1B880B449A420CD00C4BDA
:100FBC001B881A460B4B1B8819460B4B1B880B4482
:100FCC009A4201D0012300E00023DBB21846BD4653
:100FDC0080BC7047B0000020B4000020B800002096
:100FEC00B2000020B6000020BA00002080B582B00C
:100FFC0000AF78600120FFF74DF90346002B02D0BB
:10100C00334B01221A70324B1B78002B18D0012065
:10101C00FFF740F90346002B12D12E4B1B880133EE
:10102C002D4A82FB03125111DA178A1A642101FB33
:10103C0002F29A1A92B2274B1A80254B00221A7090
:10104C000120FFF741F90346002B23D0234B1B78DB
:10105C005A1C234B83FB02135910D317C91A0B4686
:10106C009B000B44D11ACAB21C4B1A701B4B1B7839
:10107C00002B0FD1174B1B880133174A82FB03122D
:10108C005111DA178A1A642101FB02F29A1A92B2F0
:10109C00104B1A800220FFF7FDF80346002B02D0FC
:1010AC00104B01221A700F4B1B78002B0CD0022016
:1010BC00FFF7F0F80346002B06D1064B1A887B6825
:1010CC001A80084B00221A7000BF0837BD4680BD3D
:1010DC00BD000020C00000201F85EB51C200002085
:1010EC0067666666BE00002080B500AFA94B1B7812
:1010FC00052B00F24C8101A252F823F0611100087B
:10110C00211100087F110008CF110008F712000808
:10111C0065120008FFF74CFBFFF762FB0020FFF79E
:10112C00B9F80346002B02D09B4B01221A709A4B44
:10113C001B78002B00F022810020FFF7ABF8034650
:10114C00002B40F01B81944B00221A70914B002213
:10115C001A7013E1FFF762FDFFF71CFF0346002B2B
:10116C0003D08C4B01221A7011E18A4B02221A70A7
:10117C000DE18A4B1B78002B04D0FFF77FFD642018
:10118C00FFF730FC0020FFF785F80346002B02D058
:10119C00814B01221A70804B1B78002B00F0F080E1
:1011AC000020FFF777F80346002B40F0E9807A4BDC
:1011BC0000221A707A4B00221A80764B03221A7086
:1011CC00DEE0FFF701FBFFF79DFB754B1B88754AB3
:1011DC00A2FB0323DB089BB2DBB219460020FFF70E
:1011EC008DF86F4B1A886F4BA3FB0213D9080B4673
:1011FC009B000B445B00D31A9BB2DBB21946012057
:10120C00FFF77CF800210220FFF778F8012103207A
:10121C00FFF774F86448FFF7E9FE0020FFF73AF88F
:10122C000346002B02D05C4B01221A705A4B1B78E0
:10123C00002B00F0A7800020FFF72CF80346002BB2
:10124C0040F0A080544B00221A70554B00221A809B
:10125C00504B05221A7095E0FFF7B6FAFFF77AFBB0
:10126C004F4B1B884F4AA2FB0323DB089BB2DBB21C
:10127C0019460020FFF742F8494B1A88494BA3FB4B
:10128C000213D9080B469B000B445B00D31A9BB28C
:10129C00DBB219460120FFF731F800210220FFF7DD
:1012AC002DF802210320FFF729F84048FFF79EFE96
:1012BC000020FEF7EFFF0346002B02D0364B012235
:1012CC001A70354B1B78002B5ED00020FEF7E2FF26
:1012DC000346002B58D1304B00221A70304B0022A1
:1012EC001A802C4B04221A704EE0FFF76DFAFFF7B0
:1012FC001DFB2B4B1B882B4AA2FB0323DB089BB249
:10130C00DBB219460020FEF7F9FF254B1A88254B56
:10131C00A3FB0213D9080B469B000B445B00D31AAA
:10132C009BB2DBB219460120FEF7E8FF0021022038
:10133C00FEF7E4FF03210320FEF7E0FF1C48FFF754
:10134C0055FE0020FEF7A6FF0346002B02D0124BE1
:10135C0001221A70104B1B78002B17D00020FEF7BF
:10136C0099FF0346002B11D10B4B00221A700C4B2A
:10137C0000221A80074B00221A7007E000BF06E01B
:10138C0000BF04E000BF02E000BF00E000BF00BFF0
:10139C0080BD00BFC3000020BC00002096000020D0
:1013AC00C0000020CDCCCCCC0400002008000020D4
:1013BC0006000020FFF71CFC0B480C490C4A0023CC
:1013CC0002E0D458C4500433C4188C42F9D3094AEF
:1013DC00094C002301E013600432A242FBD301F05C
:1013EC0029FBFFF7CDF87047000000201400002007
:1013FC00D82A000814000020CC000020FEE70000D2
:10140C0080B500AF084B1B68074A43F0100313600C
:10141C00032000F047F90F2000F008F8FFF760FBFD
:10142C000023184680BD00BF0020024080B582B06A
:10143C0000AF7860124B1A68124B1B7819464FF4A8
:10144C007A73B3FBF1F3B2FBF3F3184600F05FF9D8
:10145C000346002B01D001230EE07B680F2B0AD82A
:10146C00002279684FF0FF3000F027F9064A7B68BC
:10147C001360002300E0012318460837BD4680BDE9
:10148C0000000020100000200C00002080B400AFF1
:10149C00054B1B781A46054B1B681344034A136013
:1014AC0000BFBD4680BC704710000020C800002063
:1014BC0080B400AF024B1B681846BD4680BC704719
:1014CC00C800002080B584B000AF7860FFF7F0FF53
:1014DC00B8607B68FB60FB68B3F1FF3F05D00A4B3B
:1014EC001B781A46FB681344FB6000BFFFF7E0FF54
:1014FC000246BB68D31AFA689A42F7D800BF00BFFD
:10150C001037BD4680BD00BF1000002080B485B0F0
:10151C0000AF78607B6803F00703FB600C4BDB6863
:10152C00BB60BA684FF6FF031340BB60FB681A023E
:10153C00BB68134343F0BF6343F40033BB60044AFE
:10154C00BB68D36000BF1437BD4680BC704700BF7A
:10155C0000ED00E080B400AF044BDB681B0A03F025
:10156C0007031846BD4680BC704700BF00ED00E085
:10157C0080B483B000AF0346FB7197F90730002BA2
:10158C000BDBFB7903F01F02064997F907305B0967
:10159C00012000FA02F241F8232000BF0C37BD46AF
:1015AC0080BC704700E100E080B483B000AF03461C
:1015BC003960FB7197F90730002B0ADB3B68DAB214
:1015CC000C4997F907301201D2B20B4483F800236F
:1015DC000AE03B68DAB20849FB7903F00F03043BDD
:1015EC001201D2B20B441A7600BF0C37BD4680BC38
:1015FC00704700BF00E100E000ED00E080B489B06E
:10160C0000AFF860B9607A60FB6803F00703FB6118
:10161C00FB69C3F10703042B28BF0423BB61FB69DF
:10162C000433062B02D9FB69033B00E000237B61EA
:10163C004FF0FF32BB6902FA03F3DA43BB681A407E
:10164C007B699A404FF0FF317B6901FA03F3D94370
:10165C007B680B40134318462437BD4680BC70474B
:10166C0080B582B000AF78607B68013BB3F1807FBE
:10167C0001D301230FE00A4A7B68013B53600F2121
:10168C004FF0FF30FFF790FF054B00229A60044BA0
:10169C0007221A60002318460837BD4680BD00BFDC
:1016AC0010E000E080B582B000AF78607868FFF79A
:1016BC002DFF00BF0837BD4680BD80B586B000AF9A
:1016CC000346B9607A60FB7300237B61FFF742FF2E
:1016DC0078617A68B9687869FFF790FF024697F9E4
:1016EC000F3011461846FFF75FFF00BF1837BD4695
:1016FC0080BD80B582B000AF0346FB7197F907300F
:10170C001846FFF735FF00BF0837BD4680BD80B5D2
:10171C0082B000AF78607868FFF7A2FF03461846E6
:10172C000837BD4680BD000080B48BB000AF786038
:10173C00396000237B6200233B6261E101227B6AFA
:10174C0002FA03F3FB613B681B68FA691340BB6147
:10175C00BA69FB699A4240F050813B685B68974AD2
:10176C0093425ED0954A934275D8954A934258D08D
:10177C00934A93426FD8934A934252D0914A9342E0
:10178C0069D8914A93424CD08F4A934263D88F4A7E
:10179C00934246D08D4A93425DD8122B2AD8122BF5
:1017AC0059D801A252F823F02F1800080918000884
:1017BC001B1800085D18000863180008631800085F
:1017CC006318000863180008631800086318000801
:1017DC0063180008631800086318000863180008F1
:1017EC006318000863180008631800081118000833
:1017FC0025180008764A934213D02CE03B68DB682E
:10180C003B6229E03B68DB6804333B6224E03B68C5
:10181C00DB6808333B621FE03B68DB680C333B62E0
:10182C001AE03B689B68002B02D104233B6213E057
:10183C003B689B68012B05D108233B627B68FA69E6
:10184C001A6109E008233B627B68FA695A6103E07C
:10185C0000233B6200E000BFBB69FF2B01D87B6813
:10186C0001E07B6804337B61BB69FF2B02D87B6A88
:10187C009B0002E07B6A083B9B003B617B691A681A
:10188C000F213B6901FA03F3DB431A40396A3B69C8
:10189C0001FA03F31A437B691A603B685B6803F037
:1018AC008053002B00F0A9804A4B9B69494A43F0B6
:1018BC0001039361474B9B6903F00103BB60BB6859
:1018CC00454A7B6A9B08023352F82330FB607B6AE3
:1018DC0003F003039B000F2202FA03F3DB43FA68C5
:1018EC001340FB607B683D4A93420DD07B683C4AB9
:1018FC00934207D07B683B4A934201D1022304E018
:10190C00032302E0012300E000237A6A02F00302C1
:10191C0092009340FA681343FB602F497B6A9B0843
:10192C000233FA6841F823203B685B6803F48013A8
:10193C00002B06D02C4B9A682B49BB6913438B6048
:10194C0006E0294B9A68BB69DB43274913408B603F
:10195C003B685B6803F40013002B06D0224BDA685B
:10196C002149BB691343CB6006E01F4BDA68BB69A6
:10197C00DB431D491340CB603B685B6803F40033C9
:10198C00002B06D0184B5A681749BB6913434B60A0
:10199C0006E0154B5A68BB69DB43134913404B6097
:1019AC003B685B6803F48033002B1FD00E4B1A6826
:1019BC000D49BB6913430B601FE000BF00003210E0
:1019CC000000311000002210000021100000121045
:1019DC0000001110001002400000014000080140FE
:1019EC00000C014000100140000401400B4B1A6830
:1019FC00BB69DB43094913400B607B6A01337B6293
:101A0C003B681A687B6A22FA03F3002B7FF496AECC
:101A1C0000BF00BF2C37BD4680BC7047000401409E
:101A2C0080B485B000AF78600B467B807B689A6889
:101A3C007B881340002B02D00123FB7301E00023B1
:101A4C00FB73FB7B18461437BD4680BC704780B4D3
:101A5C0083B000AF78600B467B8013467B707B783D
:101A6C00002B03D07A887B681A6103E07B881A0408
:101A7C007B681A6100BF0C37BD4680BC704780B4D0
:101A8C0085B000AF78600B467B807B68DB68FB60C1
:101A9C007A88FB6813401A04FB68D9437B880B4097
:101AAC001A437B681A6100BF1437BD4680BC70476F
:101ABC0080B586B000AF78607B68002B01D1012324
:101ACC0072E27B681B6803F00103002B00F0878037
:101ADC00924B5B6803F00C03042B0CD08F4B5B68B0
:101AEC0003F00C03082B12D18C4B5B6803F480338E
:101AFC00B3F5803F0BD1894B1B6803F40033002BEB
:101B0C006CD07B685B68002B68D101234CE27B684E
:101B1C005B68B3F5803F06D1804B1B687F4A43F46A
:101B2C00803313602EE07B685B68002B0CD17B4B01
:101B3C001B687A4A23F480331360784B1B68774A0E
:101B4C0023F4802313601DE07B685B68B3F5A02F42
:101B5C000CD1724B1B68714A43F4802313606F4B9A
:101B6C001B686E4A43F4803313600BE06B4B1B68AD
:101B7C006A4A23F480331360684B1B68674A23F46A
:101B8C00802313607B685B68002B13D0FFF790FCFD
:101B9C00386108E0FFF78CFC02463B69D31A642BD2
:101BAC0001D9032300E25D4B1B6803F40033002BC7
:101BBC00F0D014E0FFF77CFC386108E0FFF778FC0C
:101BCC0002463B69D31A642B01D90323ECE1534B36
:101BDC001B6803F40033002BF0D100E000BF7B68DE
:101BEC001B6803F00203002B63D04C4B5B6803F0C3
:101BFC000C03002B0BD0494B5B6803F00C03082B38
:101C0C001CD1464B5B6803F48033002B16D1434B3D
:101C1C001B6803F00203002B05D07B681B69012BAA
:101C2C0001D00123C0E13D4B1B6823F0F8027B6817
:101C3C005B69DB00394913430B603AE07B681B6935
:101C4C00002B20D0364B01221A60FFF731FC386193
:101C5C0008E0FFF72DFC02463B69D31A022B01D991
:101C6C000323A1E12D4B1B6803F00203002BF0D0E2
:101C7C002A4B1B6823F0F8027B685B69DB00274961
:101C8C0013430B6015E0264B00221A60FFF710FC83
:101C9C00386108E0FFF70CFC02463B69D31A022BB3
:101CAC0001D9032380E11D4B1B6803F00203002BB9
:101CBC00F0D17B681B6803F00803002B3AD07B68DB
:101CCC009B69002B19D0174B01221A60FFF7F0FB10
:101CDC00386108E0FFF7ECFB02463B69D31A022B94
:101CEC0001D9032360E10D4B5B6A03F00203002B67
:101CFC00F0D0012000F09CFA1CE00A4B00221A6084
:101D0C00FFF7D6FB38610FE0FFF7D2FB02463B69C9
:101D1C00D31A022B08D9032346E100BF001002405E
:101D2C000000424280044242924B5B6A03F0020381
:101D3C00002BE9D17B681B6803F00403002B00F037
:101D4C00A6800023FB758B4BDB6903F08053002BC3
:101D5C000DD1884BDB69874A43F08053D361854BA7
:101D6C00DB6903F08053BB60BB680123FB75824BBE
:101D7C001B6803F48073002B18D17F4B1B687E4AC1
:101D8C0043F480731360FFF793FB386108E0FFF7AF
:101D9C008FFB02463B69D31A642B01D9032303E161
:101DAC00754B1B6803F48073002BF0D07B68DB68E9
:101DBC00012B06D16F4B1B6A6E4A43F00103136271
:101DCC002DE07B68DB68002B0CD16A4B1B6A694ADF
:101DDC0023F001031362674B1B6A664A23F004036A
:101DEC0013621CE07B68DB68052B0CD1614B1B6A12
:101DFC00604A43F0040313625E4B1B6A5D4A43F076
:101E0C00010313620BE05B4B1B6A5A4A23F001037C
:101E1C001362584B1B6A574A23F0040313627B6806
:101E2C00DB68002B15D0FFF743FB38610AE0FFF7A6
:101E3C003FFB02463B69D31A41F28832934201D9E7
:101E4C000323B1E04B4B1B6A03F00203002BEED0D3
:101E5C0014E0FFF72DFB38610AE0FFF729FB02467F
:101E6C003B69D31A41F28832934201D903239BE098
:101E7C00404B1B6A03F00203002BEED1FB7D012BC0
:101E8C0005D13C4BDB693B4A23F08053D3617B6823
:101E9C00DB69002B00F08780364B5B6803F00C038A
:101EAC00082B61D07B68DB69022B46D1334B0022B7
:101EBC001A60FFF7FDFA386108E0FFF7F9FA0246FD
:101ECC003B69D31A022B01D903236DE0294B1B6804
:101EDC0003F00073002BF0D17B681B6AB3F5803FD5
:101EEC0008D1244B5B6823F400327B689B68214942
:101EFC0013434B601F4B5B6823F474127B68196AA5
:101F0C007B685B6A0B431B4913434B601B4B0122E1
:101F1C001A60FFF7CDFA386108E0FFF7C9FA0246FC
:101F2C003B69D31A022B01D903233DE0114B1B68EB
:101F3C0003F00073002BF0D035E0104B00221A6038
:101F4C00FFF7B6FA386108E0FFF7B2FA02463B69D0
:101F5C00D31A022B01D9032326E0064B1B6803F08E
:101F6C000073002BF0D11EE07B68DB69012B07D1DD
:101F7C00012319E000100240007000406000424252
:101F8C000B4B5B68FB60FB6803F480327B681B6A5D
:101F9C009A4206D1FB6803F470127B685B6A9A4222
:101FAC0001D0012300E0002318461837BD4680BD40
:101FBC000010024080B584B000AF786039607B6857
:101FCC00002B01D10123D0E06A4B1B6803F00703FF
:101FDC003A689A4210D9674B1B6823F0070265498F
:101FEC003B6813430B60634B1B6803F007033A68B1
:101FFC009A4201D00123B8E07B681B6803F002030E
:10200C00002B20D07B681B6803F00403002B05D049
:10201C00594B5B68584A43F4E06353607B681B6818
:10202C0003F00803002B05D0534B5B68524A43F472
:10203C0060535360504B5B6823F0F0027B689B68E5
:10204C004D4913434B607B681B6803F00103002B65
:10205C0040D07B685B68012B07D1474B1B6803F4AE
:10206C000033002B15D101237FE07B685B68022BCA
:10207C0007D1414B1B6803F00073002B09D10123DE
:10208C0073E03D4B1B6803F00203002B01D10123CD
:10209C006BE0394B5B6823F003027B685B68364965
:1020AC0013434B60FFF704FAF8600AE0FFF700FAFD
:1020BC000246FB68D31A41F28832934201D90323BA
:1020CC0053E02D4B5B6803F00C027B685B689B0054
:1020DC009A42EBD1274B1B6803F007033A689A42EC
:1020EC0010D2244B1B6823F0070222493B68134390
:1020FC000B60204B1B6803F007033A689A4201D02F
:10210C00012332E07B681B6803F00403002B08D02A
:10211C00194B5B6823F4E0627B68DB681649134358
:10212C004B607B681B6803F00803002B09D0124B33
:10213C005B6823F460527B681B69DB000E49134318
:10214C004B6000F021F802460B4B5B681B0903F057
:10215C000F030A49CB5C22FA03F3094A1360094BBB
:10216C001B681846FFF762F9002318461037BD4666
:10217C0080BD00BF0020024000100240AC2A0008C5
:10218C00000000200C00002080B487B000AF0023BA
:10219C00FB600023BB6000237B6100237B6000237A
:1021AC003B611E4B5B68FB60FB6803F00C03042B6C
:1021BC0002D0082B03D027E0194B3B6127E0FB68CA
:1021CC009B0C03F00F03174AD35C7B60FB6803F492
:1021DC008033002B10D0114B5B685B0C03F00103B8
:1021EC00114AD35CBB607B680D4A03FB02F2BB68EF
:1021FC00B2FBF3F37B6104E07B680C4A02FB03F354
:10220C007B617B693B6102E0054B3B6100BF3B6935
:10221C0018461C37BD4680BC704700BF00100240FA
:10222C0000127A00BC2A0008CC2A000800093D00E4
:10223C0080B485B000AF78600A4B1B680A4AA2FBD9
:10224C0003235B0A7A6802FB03F3FB6000BFFB68A5
:10225C005A1EFA60002BF9D100BF00BF1437BD46DF
:10226C0080BC704700000020D34D621080B582B056
:10227C0000AF78607B68002B01D1012341E07B68C3
:10228C0093F83D30DBB2002B06D17B68002283F83B
:10229C003C207868FEF756FC7B68022283F83D20D0
:1022AC007B681A687B6804331946104600F056FAAE
:1022BC007B68012283F846207B68012283F83E204C
:1022CC007B68012283F83F207B68012283F8402041
:1022DC007B68012283F841207B68012283F842202D
:1022EC007B68012283F843207B68012283F8442019
:1022FC007B68012283F845207B68012283F83D200E
:10230C00002318460837BD4680BD000080B485B058
:10231C0000AF78607B6893F83D30DBB2012B01D0C5
:10232C00012335E07B68022283F83D207B681B6823
:10233C00DA687B681B6842F00102DA607B681B6814
:10234C00164A934209D07B681B68B3F1804F04D0C6
:10235C007B681B68124A934211D17B681B689B688F
:10236C0003F00703FB60FB68062B10D07B681B682F
:10237C001A687B681B6842F001021A6007E07B68F0
:10238C001B681A687B681B6842F001021A60002304
:10239C0018461437BD4680BC704700BF002C014066
:1023AC000004004080B584B000AF78607B681B6887
:1023BC00DB68FB607B681B681B69BB60BB6803F058
:1023CC000203002B20D0FB6803F00203002B1BD070
:1023DC007B681B686FF002021A617B6801221A7716
:1023EC007B681B689B6903F00303002B03D07868A0
:1023FC0000F098F905E0786800F08BF9786800F047
:10240C009AF97B6800221A77BB6803F00403002B4F
:10241C0020D0FB6803F00403002B1BD07B681B68E7
:10242C006FF004021A617B6802221A777B681B68C2
:10243C009B6903F44073002B03D0786800F072F9A9
:10244C0005E0786800F065F9786800F074F97B684D
:10245C0000221A77BB6803F00803002B20D0FB681E
:10246C0003F00803002B1BD07B681B686FF008027D
:10247C001A617B6804221A777B681B68DB6903F09E
:10248C000303002B03D0786800F04CF905E0786862
:10249C0000F03FF9786800F04EF97B6800221A775B
:1024AC00BB6803F01003002B20D0FB6803F0100373
:1024BC00002B1BD07B681B686FF010021A617B68C5
:1024CC0008221A777B681B68DB6903F44073002BC6
:1024DC0003D0786800F026F905E0786800F019F967
:1024EC00786800F028F97B6800221A77BB6803F043
:1024FC000103002B0CD0FB6803F00103002B07D069
:10250C007B681B686FF001021A617868FEF7D2FADB
:10251C00BB6803F08003002B0CD0FB6803F0800336
:10252C00002B07D07B681B686FF080021A617868FB
:10253C0000F06FFABB6803F04003002B0CD0FB6873
:10254C0003F04003002B07D07B681B686FF0400240
:10255C001A61786800F0F8F8BB6803F02003002BD0
:10256C000CD0FB6803F02003002B07D07B681B68A2
:10257C006FF020021A61786800F042FA00BF103741
:10258C00BD4680BD80B584B000AF78603960002353
:10259C00FB737B6893F83C30012B01D10223B4E030
:1025AC007B68012283F83C207B68022283F83D2063
:1025BC007B681B689B68BB60BB6823F07703BB60C0
:1025CC00BB6823F47F43BB607B681B68BA689A6066
:1025DC003B681B68B3F5005F3ED0B3F5005F00F2BB
:1025EC008780B3F5805F00F08680B3F5805F7FD87D
:1025FC00702B1AD0702B7BD8602B50D0602B77D8D7
:10260C00502B3CD0502B73D8402B58D0402B6FD82C
:10261C00302B64D0302B6BD8202B60D0202B67D87C
:10262C00002B5CD0102B5AD062E07B6818683B689A
:10263C0099683B685A683B68DB6800F06AF97B680C
:10264C001B689B68BB60BB6843F07703BB607B680F
:10265C001B68BA689A604FE07B6818683B68996899
:10266C003B685A683B68DB6800F053F97B681B6871
:10267C009A687B681B6842F480429A603CE07B68F5
:10268C0018683B6859683B68DB681A4600F0CAF862
:10269C007B681B685021184600F021F92CE07B6800
:1026AC0018683B6859683B68DB681A4600F0E8F824
:1026BC007B681B686021184600F011F91CE07B68F0
:1026CC0018683B6859683B68DB681A4600F0AAF842
:1026DC007B681B684021184600F001F90CE07B6810
:1026EC001A683B681B681946104600F0F8F803E0BE
:1026FC000123FB7300E000BF7B68012283F83D20BF
:10270C007B68002283F83C20FB7B18461037BD46C3
:10271C0080BD80B483B000AF786000BF0C37BD467D
:10272C0080BC704780B483B000AF786000BF0C37BA
:10273C00BD4680BC704780B483B000AF786000BFEA
:10274C000C37BD4680BC704780B483B000AF786056
:10275C0000BF0C37BD4680BC7047000080B485B00C
:10276C0000AF786039607B681B68FB607B682B4A24
:10277C00934207D07B68B3F1804F03D07B68284A23
:10278C00934208D1FB6823F07003FB603B685B68E5
:10279C00FA681343FB607B68204A934207D07B683E
:1027AC00B3F1804F03D07B681D4A934208D1FB687C
:1027BC0023F44073FB603B68DB68FA681343FB60EF
:1027CC00FB6823F080023B685B691343FB607B680A
:1027DC00FA681A603B689A687B68DA623B681A6828
:1027EC007B689A627B680D4A934203D13B681A69F5
:1027FC007B681A637B6801225A617B681B6903F052
:10280C000103002B05D07B681B6923F001027B6858
:10281C001A6100BF1437BD4680BC7047002C0140C4
:10282C000004004080B487B000AFF860B9607A60F3
:10283C00FB681B6A7B61FB681B6A23F00102FB6867
:10284C001A62FB689B693B613B6923F0F0033B61B7
:10285C007B681B013A6913433B617B6923F00A03D4
:10286C007B617A69BB6813437B61FB683A699A6147
:10287C00FB687A691A6200BF1C37BD4680BC704782
:10288C0080B487B000AFF860B9607A60FB681B6AEF
:10289C007B61FB681B6A23F01002FB681A62FB6801
:1028AC009B693B613B6923F470433B617B681B0371
:1028BC003A6913433B617B6923F0A0037B61BB68DE
:1028CC001B017A6913437B61FB683A699A61FB6867
:1028DC007A691A6200BF1C37BD4680BC704780B451
:1028EC0085B000AF786039607B689B68FB60FB68E3
:1028FC0023F07003FB603A68FB68134343F0070353
:10290C00FB607B68FA689A6000BF1437BD4680BCD8
:10291C00704780B487B000AFF860B9607A603B60F4
:10292C00FB689B687B617B6923F47F437B613B681D
:10293C001A027B681A43BB6813437A6913437B61A1
:10294C00FB687A699A6000BF1C37BD4680BC704733
:10295C0080B485B000AF786039607B6893F83C3008
:10296C00012B01D1022341E07B68012283F83C203A
:10297C007B68022283F83D207B681B685B68FB60E8
:10298C007B681B689B68BB60FB6823F07003FB6073
:10299C003B681B68FA681343FB607B681B68FA682A
:1029AC005A607B681B68144A934209D07B681B6889
:1029BC00B3F1804F04D07B681B68104A93420CD152
:1029CC00BB6823F08003BB603B685B68BA68134349
:1029DC00BB607B681B68BA689A607B68012283F8CD
:1029EC003D207B68002283F83C20002318461437D6
:1029FC00BD4680BC704700BF002C01400004004065
:102A0C0080B483B000AF786000BF0C37BD4680BC8B
:102A1C00704780B483B000AF786000BF0C37BD4600
:102A2C0080BC704703460244934200D1704703F8C0
:102A3C00011BF9E770B500260C4D0D4C641BA4105E
:102A4C00A64209D100F01AF800260A4D0A4C641B64
:102A5C00A410A64205D170BD55F8043B9847013629
:102A6C00EEE755F8043B98470136F2E7D02A000808
:102A7C00D02A0008D02A0008D42A0008F8B500BFD4
:102A8C00F8BC08BC9E467047F8B500BFF8BC08BC43
:042A9C009E4670479B
:102AA0003F065B4F666D7D077F6F000000000000F2
:102AB00000000000010203040607080902030405E0
:102AC000060708090A0B0C0D0E0F1010010200007A
:042AD00031010008C8
:042AD4000D010008E8
:102AD80000127A000F0003000C0000001000000034
:042AE80001000000E9
:04000005080013C11B
:00000001FF
