:020000040800F2
:100000000028002045150008E50B0008EB0B000850
:10001000F10B0008F70B0008FD0B000800000000C2
:10002000000000000000000000000000030C0008B9
:100030000F0C0008000000001B0C0008270C000833
:100040008D1500088D1500088D1500088D15000808
:100050008D1500088D1500088D1500088D150008F8
:100060008D1500088D1500088D1500088D150008E8
:100070008D1500088D1500088D1500088D150008D8
:100080008D1500088D1500088D1500088D150008C8
:100090008D1500088D1500088D1500088D150008B8
:1000A0008D1500088D1500088D1500088D150008A8
:1000B000350C00088D150008000000008D150008A3
:1000C0008D15000800000000000000008D150008DC
:1000D000000000008D1500088D15000800000000CC
:1000E0008D1500088D1500088D1500080000000012
:1000F0000000000000000000000000000000000000
:0C01000000000000000000005FF808F1A3
:10010C0010B5054C237833B9044B13B10448AFF345
:10011C0000800123237010BD0C00002000000000A3
:10012C000C2C000808B5034B1BB103490348AFF373
:10013C00008008BD00000000100000200C2C0008FE
:10014C0080B582B000AF00237B6069E0384A7B68E1
:10015C0013441978374A7B6813440A461A70364A96
:10016C007B6813441978324A7B6813440A461A7028
:10017C00324A7B68134419782F4A7B6813440A4629
:10018C001A702F4A7B68134419782C4A7B681344E5
:10019C000A461A707B68DBB2184600F05BF8284AF6
:1001AC007B6813441A7823497B680B441B789A426A
:1001BC0033D1204A7B6813441978224A7B68134454
:1001CC000A461A701F4A7B6813441B78002B1AD1FD
:1001DC001D4A7B6813441B78632B0BD81A4A7B6827
:1001EC0013441B780133D9B2174A7B6813440A466F
:1001FC001A7012E0154B01221A70154A7B681344D1
:10020C0001221A7009E0124A7B68134400221A700A
:10021C000D4A7B68134400221A707B6801337B60A3
:10022C007B68022B92DD00BF00BF0837BD4680BD46
:10023C00300000202C00002034000020380000206A
:10024C003C00002028000020440000204700002033
:10025C004000002090B583B000AF0346FB71FB79E2
:10026C00022B1CD0022B25DC002B02D0012B0BD037
:10027C0020E0FC794FF48071114801F093FC0346A7
:10028C001A46104B1A5516E0FC794FF400710C48C5
:10029C0001F088FC03461A460A4B1A550BE0FC7910
:1002AC004FF48061064801F07DFC03461A46054B6D
:1002BC001A5500E000BF00BF0C37BD4690BD00BF13
:1002CC00000C01403C00002080B483B000AF03461A
:1002DC00FB71FB79032B01D9002307E0FB79064A5C
:1002EC00D35C002B0CBF01230023DBB218460C3768
:1002FC00BD4680BC704700BF2800002080B483B08E
:10030C0000AF0346FB71FB79032B01D9002307E0F7
:10031C00FB79064AD35C012B0CBF01230023DBB213
:10032C0018460C37BD4680BC704700BF400000200B
:10033C0080B500AF03220021024802F035FC00BF5B
:10034C0080BD00BF4800002080B500AF224B1B7859
:10035C00022B28D0022B3DDC002B02D0012B0ED01F
:10036C0038E00020FFF7B0FF0346002B03D01A4BF8
:10037C0001221A702EE0184B00221A702AE000207D
:10038C00FFF7A2FF0346002B09D00020FFF7B6FFB2
:10039C000346002B1BD0104B02221A7017E00E4B99
:1003AC0000221A7013E00020FFF78EFF0346002B8B
:1003BC0009D00020FFF7A2FF0346002B09D0064B03
:1003CC0002221A7005E0044B00221A7001E000BFF3
:1003DC0000E000BF00BF80BD4800002080B500AF2A
:1003EC00224B5B78022B28D0022B3DDC002B02D059
:1003FC00012B0ED038E00120FFF766FF0346002BDF
:10040C0003D01A4B01225A702EE0184B00225A705E
:10041C002AE00120FFF758FF0346002B09D00120EA
:10042C00FFF76CFF0346002B1BD0104B02225A70B7
:10043C0017E00E4B00225A7013E00120FFF744FF27
:10044C000346002B09D00120FFF758FF0346002B71
:10045C0009D0064B02225A7005E0044B00225A7058
:10046C0001E000BF00E000BF00BF80BD48000020DD
:10047C0080B500AF224B9B78022B28D0022B3DDCA1
:10048C00002B02D0012B0ED038E00220FFF71CFF0E
:10049C000346002B03D01A4B01229A702EE0184B06
:1004AC0000229A702AE00220FFF70EFF0346002B71
:1004BC0009D00220FFF722FF0346002B1BD0104B64
:1004CC0002229A7017E00E4B00229A7013E0022061
:1004DC00FFF7FAFE0346002B09D00220FFF70EFFB0
:1004EC000346002B09D0064B02229A7005E0044B00
:1004FC0000229A7001E000BF00E000BF00BF80BD89
:10050C004800002080B483B000AF03460A46FB715C
:10051C001346BB71FB790449BA79CA5400BF0C3736
:10052C00BD4680BC704700BF4C00002080B500AFBA
:10053C00514B1B78032B00F28F8001A252F823F051
:10054C005D0500089F050008E1050008230600086A
:10055C0000224FF40071494801F03BFB01224FF49B
:10056C008061464801F035FB01224FF4006143489D
:10057C0001F02FFB01224FF48051404801F029FB80
:10058C003D4B1B781A463E4B9B5C184600F07AF8A4
:10059C0063E001224FF40071384801F01AFB00228D
:1005AC004FF48061354801F014FB01224FF40061D7
:1005BC00324801F00EFB01224FF480512F4801F01C
:1005CC0008FB2D4B1B781A462D4B9B5C184600F0F4
:1005DC0059F842E001224FF40071284801F0F9FA71
:1005EC0001224FF48061254801F0F3FA00224FF408
:1005FC000061224801F0EDFA01224FF480511F48AE
:10060C0001F0E7FA1C4B1B781A461D4B9B5C1846F5
:10061C0000F038F821E001224FF40071174801F086
:10062C00D8FA01224FF48061144801F0D2FA012269
:10063C004FF40061114801F0CCFA00224FF48051C4
:10064C000E4801F0C6FA0C4B1B781A460C4B9B5CFF
:10065C00184600F017F800E000BF074B1B78013379
:10066C005A4203F0030302F0030258BF5342DAB2BA
:10067C00014B1A7000BF80BD4B00002000080140E8
:10068C004C00002080B582B000AF0346FB71FB79B3
:10069C003B4AD35C03F00103002B0CBF0123002366
:1006AC00DBB21A460121374801F093FAFB79344A40
:1006BC00D35C5B08DBB203F00103002B0CBF0123FE
:1006CC000023DBB21A4602212E4801F082FAFB7994
:1006DC002B4AD35C9B08DBB203F00103002B0CBF4D
:1006EC0001230023DBB21A460421264801F071FADB
:1006FC00FB79234AD35CDB08DBB203F00103002B4C
:10070C000CBF01230023DBB21A4608211D4801F05F
:10071C0060FAFB791A4AD35C1B09DBB203F00103C4
:10072C00002B0CBF01230023DBB21A461021154805
:10073C0001F04FFAFB79124AD35C5B09DBB203F090
:10074C000103002B0CBF01230023DBB21A4620212E
:10075C000C4801F03EFAFB79094AD35C9B09DBB2E9
:10076C0003F00103002B0CBF01230023DBB21A465C
:10077C004021044801F02DFA00BF0837BD4680BD6A
:10078C00242C0008000C014080B500AF00F0FAFEEC
:10079C0000F02AF800F0B0F800F062F8104801F010
:1007AC0077FEFFF7C5FD00F04FFA642000F040F92A
:1007BC00322000F009F9012000F020F9FFF7C4FD08
:1007CC00FFF70CFEFFF754FE064B1B78002BF5D001
:1007DC0000F00EFDFFF7AAFE0A2000F00FF9EDE77E
:1007EC00500000209900002080B590B000AF07F1B8
:1007FC00180328220021184602F0D6F93B1D0022CE
:10080C001A605A609A60DA601A610223BB61012394
:10081C00BB621023FB6200237B6307F118031846AD
:10082C0001F008FA0346002B01D000F0C7F80F23A3
:10083C007B600023BB600023FB6000233B61002333
:10084C007B613B1D0021184601F076FC0346002B12
:10085C0001D000F0B3F800BF4037BD4680BD0000AA
:10086C0080B586B000AF07F1080300221A605A6009
:10087C009A60DA603B4600221A605A601D4B4FF0BA
:10088C0080421A601B4B41F63F725A60194B002292
:10089C009A60184B0922DA60164B00221A61154B2C
:1008AC0000229A61134801F0A3FD0346002B01D0EE
:1008BC0000F084F84FF48053BB6007F1080319462D
:1008CC000C4801F021FF0346002B01D000F076F814
:1008DC0000233B6000237B603B461946054802F031
:1008EC00F9F80346002B01D000F068F800BF183768
:1008FC00BD4680BD5000002080B586B000AF07F12A
:10090C00080300221A605A609A60DA60284B9B69CF
:10091C00274A43F004039361254B9B6903F00403BE
:10092C007B607B68224B9B69214A43F008039361EF
:10093C001F4B9B6903F008033B603B68002241F6A8
:10094C007E611C4801F045F900227F211A4801F014
:10095C0040F941F67E63BB600123FB6000233B61E1
:10096C0002237B6107F108031946124800F09EFF31
:10097C007F23BB600123FB6000233B6102237B616F
:10098C0007F1080319460C4800F090FF4FF4E063A0
:10099C00BB600023FB6000233B6107F10803194691
:1009AC00054800F083FF00BF1837BD4680BD00BF6F
:1009BC000010024000080140000C014080B400AF60
:1009CC0072B600BFFEE7000080B483B000AF786061
:1009DC00074A7B681360064B1B68064A1360064B7C
:1009EC0000221A7000BF0C37BD4680BC704700BF98
:1009FC00A80000209C0000209800002080B483B048
:100A0C0000AF7860074A7B681360064B1B68064A88
:100A1C001360064B00221A7000BF0C37BD4680BC19
:100A2C00704700BFAC000020A000002099000020FF
:100A3C0080B483B000AF7860074A7B681360064BC4
:100A4C001B68064A1360064B00221A7000BF0C3755
:100A5C00BD4680BC704700BFB0000020A400002041
:100A6C009A00002080B400AF094B1B68002B0BDDF3
:100A7C00074B1B68013B064A1360054B1B68002B98
:100A8C0002DC044B01221A7000BFBD4680BC7047CB
:100A9C009C0000209800002080B400AF094B1B681C
:100AAC00002B0BDD074B1B68013B064A1360054B03
:100ABC001B68002B02DC044B01221A7000BFBD46E0
:100ACC0080BC7047A00000209900002080B400AFCB
:100ADC00094B1B68002B0BDD074B1B68013B064ABF
:100AEC001360054B1B68002B02DC044B01221A70AF
:100AFC0000BFBD4680BC7047A40000209A000020B7
:100B0C0080B582B000AF78607B681B68B3F1804F12
:100B1C0007D1FFF7A7FFFFF7BFFFFFF7D7FFFFF7DF
:100B2C000FFB00BF0837BD4680BD000080B485B008
:100B3C0000AF154B9B69144A43F001039361124BB0
:100B4C009B6903F00103BB60BB680F4BDB690E4A6A
:100B5C0043F08053D3610C4BDB6903F080537B6013
:100B6C007B680A4B5B68FB60FB6823F0E063FB600F
:100B7C00FB6843F08063FB60044AFB68536000BF72
:100B8C001437BD4680BC7047001002400000014085
:100B9C0080B584B000AF78607B681B68B3F1804F80
:100BAC0013D10C4BDB690B4A43F00103D361094BA6
:100BBC00DB6903F00103FB60FB68002200211C20B1
:100BCC0000F03DFE1C2000F056FE00BF1037BD4665
:100BDC0080BD00BF0010024080B400AFFEE780B4BF
:100BEC0000AFFEE780B400AFFEE780B400AFFEE7D5
:100BFC0080B400AFFEE780B400AF00BFBD4680BC40
:100C0C00704780B400AF00BFBD4680BC704780B455
:100C1C0000AF00BFBD4680BC704780B500AF00F090
:100C2C00F7FC00BF80BD000080B500AF024801F0AA
:100C3C007BFC00BF80BD00BF5000002080B400AF23
:100C4C0000BFBD4680BC704780B500AF044B00228E
:100C5C001A70044B00221A7000F006F800BF80BD19
:100C6C00C2000020C300002080B400AF0A4B0F224A
:100C7C001A800A4B0F221A80094B03221A80094B47
:100C8C0003221A80084B0C221A80084B0C221A8063
:100C9C0000BFBD4680BC7047B4000020B6000020E9
:100CAC00B8000020BA000020BC000020BE000020CC
:100CBC0080B500AF8D4B1B78042B00F2EE8101A2A6
:100CCC0052F823F0E50C00086D0D0008330E0008F7
:100CDC00110F0008D50F000801220821844800F0EC
:100CEC0078FF01224021824800F073FF0122042189
:100CFC007F4800F06EFF012220217D4800F069FF43
:100D0C00012202217A4800F064FF01221021784868
:100D1C0000F05FFF4FF47A7000F096FC002208217F
:100D2C00734800F056FF00224021714800F051FF3B
:100D3C00002204216E4800F04CFF002220216C4858
:100D4C0000F047FF00220221694800F042FF002218
:100D5C001021674800F03DFF644B01221A709CE1A2
:100D6C00644B1B88013B9AB2624B1A80624B1B8806
:100D7C00013B9AB2604B1A80002204215C4800F0BF
:100D8C0028FF002240215A4800F023FF01220821AD
:100D9C00574800F01EFF01221021554800F019FFA2
:100DAC00544B1B88554AA2FB0323DB089BB2DBB2D6
:100DBC0019460020FFF7A6FB4E4B1A884F4BA3FB9E
:100DCC000213D9080B469B000B445B00D31A9BB251
:100DDC00DBB219460120FFF795FB474B1B88474AAE
:100DEC00A2FB0323DB089BB2DBB219460220FFF700
:100DFC0089FB414B1A88414BA3FB0213D9080B46C4
:100E0C009B000B445B00D31A9BB2DBB21946032048
:100E1C00FFF778FB384B1B88002B40F03781334BA6
:100E2C0002221A7032E1334B1B88013B9AB2314BD0
:100E3C001A80334B1B88013B9AB2314B1A8000222B
:100E4C0010212B4800F0C5FE00220821284800F094
:100E5C00C0FE01220821264800F0BBFE0122202101
:100E6C00234800F0B6FE234B1B88244AA2FB032325
:100E7C00DB089BB2DBB219460020FFF743FB1D4B8E
:100E8C001A881E4BA3FB0213D9080B469B000B447C
:100E9C005B00D31A9BB2DBB219460120FFF732FB81
:100EAC00174B1B88154AA2FB0323DB089BB2DBB252
:100EBC0019460220FFF726FB114B1A880F4BA3FB98
:100ECC000213D9080B469B000B445B00D31A9BB250
:100EDC00DBB219460320FFF715FB094B1B88002BCF
:100EEC0040F0D680014B03221A70D1E0C3000020E1
:100EFC0000080140B4000020BE000020CDCCCCCCBA
:100F0C00BA000020664B1B88013B9AB2644B1A80D6
:100F1C00644B1B88013B9AB2624B1A800022202141
:100F2C00614800F056FE002208215F4800F051FE97
:100F3C00012240215C4800F04CFE012202215A485B
:100F4C0000F047FE574B1B88584AA2FB0323DB08D3
:100F5C009BB2DBB219460020FFF7D4FA514B1A882A
:100F6C00524BA3FB0213D9080B469B000B445B00AE
:100F7C00D31A9BB2DBB219460120FFF7C3FA484BD8
:100F8C001B884A4AA2FB0323DB089BB2DBB219463F
:100F9C000220FFF7B7FA424B1A88444BA3FB02130B
:100FAC00D9080B469B000B445B00D31A9BB2DBB2F7
:100FBC0019460320FFF7A6FA3A4B1B88002B69D180
:100FCC003B4B04221A7065E0354B1B88013B9AB2EF
:100FDC00334B1A80374B1B88013B9AB2354B1A8026
:100FEC0000220221304800F0F4FD002240212E485E
:100FFC0000F0EFFD012240212B4800F0EAFD012218
:10100C000421294800F0E5FD2A4B1B88274AA2FB46
:10101C000323DB089BB2DBB219460020FFF772FA00
:10102C00244B1A88214BA3FB0213D9080B469B00B7
:10103C000B445B00D31A9BB2DBB219460120FFF7BD
:10104C0061FA174B1B88194AA2FB0323DB089BB2DE
:10105C00DBB219460220FFF755FA114B1A88134BD5
:10106C00A3FB0213D9080B469B000B445B00D31A5D
:10107C009BB2DBB219460320FFF744FA0D4B1B88D9
:10108C00002B09D10A4B01221A7005E000BF04E0C5
:10109C0000BF02E000BF00E000BF00BF80BD00BF8A
:1010AC00B6000020BC00002000080140CDCCCCCC08
:1010BC00C3000020B800002080B500AF002208213A
:1010CC00164800F086FD00224021144800F081FDF6
:1010DC0000220421114800F07CFD002220210F4841
:1010EC0000F077FD002202210C4800F072FD002276
:1010FC0010210A4800F06DFD00210020FFF702FAD4
:10110C0000210120FFF7FEF900210220FFF7FAF978
:10111C0000210320FFF7F6F900BF80BD0008014055
:10112C0080B500AF064B1B78002B06D04821054834
:10113C0000F067FD3220FFF747FC00BF80BD00BF09
:10114C00980000200008014080B500AF064B1B78CA
:10115C00002B06D02421054800F053FD3220FFF768
:10116C0033FC00BF80BD00BF980000200008014088
:10117C0080B500AF064B1B78002B06D0122105481A
:10118C0000F03FFD3220FFF71FFC00BF80BD00BF09
:10119C00980000200008014080B400AF0E4B1B8863
:1011AC001A460E4B1B8819460D4B1B880B449A4252
:1011BC000CD00C4B1B881A460B4B1B8819460B4B3F
:1011CC001B880B449A4201D0012300E00023DBB2C0
:1011DC001846BD4680BC7047B4000020B800002003
:1011EC00BC000020B6000020BA000020BE00002089
:1011FC0080B500AF834B1B78052B00F28D8101A2CB
:10120C0052F823F0291200081315000843120008A5
:10121C00671200083914000833130008FFF7BCFFED
:10122C000346002B03D0774B01221A7074E1754BE7
:10123C0002221A7070E1744B1B78002B04D0FFF75C
:10124C0037FD6420FFF7F4FB704B1B78022B40F04A
:10125C005C816C4B03221A7057E1FFF72DFFFFF7EF
:10126C005FFF6B4B1A886B4B1A80684B5B78012BBA
:10127C000FD1684B1B880133674A82FB0312511153
:10128C00DA178A1A642101FB02F29A1A92B2614BA4
:10129C001A805E4B9B78012B0FD15E4B1B88013B58
:1012AC005D4A82FB03125111DA178A1A642101FB81
:1012BC0002F29A1A92B2574B1A80564B1B88574A15
:1012CC00A2FB0323DB089BB2DBB219460020FFF71D
:1012DC0019F9504B1A88514BA3FB0213D9080B4632
:1012EC009B000B445B00D31A9BB2DBB21946012066
:1012FC00FFF708F900210220FFF704F90121032070
:10130C00FFF700F9434B1A88414B1A80414B1A885E
:10131C00434B1A803D4B1B78022B40F0F880394B25
:10132C0005221A70F3E0FFF7C7FEFFF721FF3D4BD4
:10133C001A88384B1A80354B5B78012B03D0334B12
:10134C005B78022B0FD1334B1B880133324A82FB63
:10135C0003125111DA178A1A642101FB02F29A1A4C
:10136C0092B22C4B1A80294B9B78012B03D0274B24
:10137C009B78022B0FD1274B1B88013B264A82FB03
:10138C0003125111DA178A1A642101FB02F29A1A1C
:10139C0092B2204B1A801F4B1B88204AA2FB0323BE
:1013AC00DB089BB2DBB219460020FFF7ABF8194BF8
:1013BC001A881A4BA3FB0213D9080B469B000B444B
:1013CC005B00D31A9BB2DBB219460120FFF79AF8E7
:1013DC0000210220FFF796F802210320FFF792F874
:1013EC000C4B1A880F4B1A800A4B1A880E4B1A801A
:1013FC00064B1B78022B40F08C80024B04221A7097
:10140C0087E000BFC20000209A00002048000020A6
:10141C00B4000020C00000201F85EB51CDCCCCCCFB
:10142C00B6000020BC000020BE000020FFF744FEE8
:10143C00FFF78AFE394B1A88394B1A80394B5B7887
:10144C00012B03D0374B5B78022B0FD1344B1B880D
:10145C000133354A82FB03125111DA178A1A6421BF
:10146C0001FB02F29A1A92B22D4B1A802D4B9B78EB
:10147C00012B03D02B4B9B78022B0FD1284B1B88B5
:10148C00013B294A82FB03125111DA178A1A642193
:10149C0001FB02F29A1A92B2214B1A80204B1B8844
:1014AC00224AA2FB0323DB089BB2DBB219460020C5
:1014BC00FFF728F81A4B1A881C4BA3FB0213D90808
:1014CC000B469B000B445B00D31A9BB2DBB2194654
:1014DC000120FFF717F800210220FFF713F8032172
:1014EC000320FFF70FF80E4B1A880C4B1A800C4B8D
:1014FC001A880F4B1A800B4B1B78022B0BD10D4B00
:10150C0000221A7007E000BF06E000BF04E000BF35
:10151C0002E000BF00E000BF00BF80BDB8000020AB
:10152C00C0000020480000201F85EB51CDCCCCCC56
:10153C00BA000020C2000020FFF780FB0B480C49CA
:10154C000C4A002302E0D458C4500433C4188C4213
:10155C00F9D3094A094C002301E013600432A2427A
:10156C00FBD301F029FBFFF70FF9704700000020B7
:10157C000C0000205C2C00080C000020C80000208F
:10158C00FEE7000080B500AF084B1B68074A43F02C
:10159C0010031360032000F047F90F2000F008F847
:1015AC00FFF7C4FA0023184680BD00BF002002409C
:1015BC0080B582B000AF7860124B1A68124B1B7862
:1015CC0019464FF47A73B3FBF1F3B2FBF3F31846FD
:1015DC0000F05FF90346002B01D001230EE07B687D
:1015EC000F2B0AD8002279684FF0FF3000F027F952
:1015FC00064A7B681360002300E001231846083775
:10160C00BD4680BD00000020080000200400002022
:10161C0080B400AF054B1B781A46054B1B6813446E
:10162C00034A136000BFBD4680BC70470800002011
:10163C00C400002080B400AF024B1B681846BD46A6
:10164C0080BC7047C400002080B584B000AF7860C7
:10165C00FFF7F0FFB8607B68FB60FB68B3F1FF3FFE
:10166C0005D00A4B1B781A46FB681344FB6000BF7D
:10167C00FFF7E0FF0246BB68D31AFA689A42F7D824
:10168C0000BF00BF1037BD4680BD00BF0800002062
:10169C0080B485B000AF78607B6803F00703FB6013
:1016AC000C4BDB68BB60BA684FF6FF031340BB60A2
:1016BC00FB681A02BB68134343F0BF6343F4003367
:1016CC00BB60044ABB68D36000BF1437BD4680BC06
:1016DC00704700BF00ED00E080B400AF044BDB6846
:1016EC001B0A03F007031846BD4680BC704700BFB9
:1016FC0000ED00E080B483B000AF0346FB7197F9B6
:10170C000730002B0BDBFB7903F01F02064997F91E
:10171C0007305B09012000FA02F241F8232000BFD8
:10172C000C37BD4680BC704700E100E080B483B04C
:10173C0000AF03463960FB7197F90730002B0ADBC9
:10174C003B68DAB20C4997F907301201D2B20B445C
:10175C0083F800230AE03B68DAB20849FB7903F00E
:10176C000F03043B1201D2B20B441A7600BF0C37A4
:10177C00BD4680BC704700BF00E100E000ED00E01A
:10178C0080B489B000AFF860B9607A60FB6803F090
:10179C000703FB61FB69C3F10703042B28BF042378
:1017AC00BB61FB690433062B02D9FB69033B00E0E8
:1017BC0000237B614FF0FF32BB6902FA03F3DA437B
:1017CC00BB681A407B699A404FF0FF317B6901FA84
:1017DC0003F3D9437B680B40134318462437BD46AB
:1017EC0080BC704780B582B000AF78607B68013BED
:1017FC00B3F1807F01D301230FE00A4A7B68013BE0
:10180C0053600F214FF0FF30FFF790FF054B002284
:10181C009A60044B07221A60002318460837BD460D
:10182C0080BD00BF10E000E080B582B000AF7860F2
:10183C007868FFF72DFF00BF0837BD4680BD80B527
:10184C0086B000AF0346B9607A60FB7300237B61FE
:10185C00FFF742FF78617A68B9687869FFF790FF03
:10186C00024697F90F3011461846FFF75FFF00BF8D
:10187C001837BD4680BD80B582B000AF0346FB7102
:10188C0097F907301846FFF735FF00BF0837BD46FC
:10189C0080BD80B582B000AF78607868FFF7A2FF9A
:1018AC00034618460837BD4680BD000080B48BB097
:1018BC0000AF7860396000237B6200233B6261E1FA
:1018CC0001227B6A02FA03F3FB613B681B68FA692D
:1018DC001340BB61BA69FB699A4240F050813B6886
:1018EC005B68974A93425ED0954A934275D8954A65
:1018FC00934258D0934A93426FD8934A934252D012
:10190C00914A934269D8914A93424CD08F4A934260
:10191C0063D88F4A934246D08D4A93425DD8122B9E
:10192C002AD8122B59D801A252F823F0B319000867
:10193C008D1900089F190008E1190008E719000823
:10194C00E7190008E7190008E7190008E71900086B
:10195C00E7190008E7190008E7190008E71900085B
:10196C00E7190008E7190008E7190008E71900084B
:10197C0095190008A9190008764A934213D02CE057
:10198C003B68DB683B6229E03B68DB6804333B6205
:10199C0024E03B68DB6808333B621FE03B68DB6894
:1019AC000C333B621AE03B689B68002B02D104238A
:1019BC003B6213E03B689B68012B05D108233B621B
:1019CC007B68FA691A6109E008233B627B68FA6953
:1019DC005A6103E000233B6200E000BFBB69FF2BB0
:1019EC0001D87B6801E07B6804337B61BB69FF2B0A
:1019FC0002D87B6A9B0002E07B6A083B9B003B6140
:101A0C007B691A680F213B6901FA03F3DB431A4027
:101A1C00396A3B6901FA03F31A437B691A603B6824
:101A2C005B6803F08053002B00F0A9804A4B9B6944
:101A3C00494A43F001039361474B9B6903F001034F
:101A4C00BB60BB68454A7B6A9B08023352F8233063
:101A5C00FB607B6A03F003039B000F2202FA03F383
:101A6C00DB43FA681340FB607B683D4A93420DD020
:101A7C007B683C4A934207D07B683B4A934201D136
:101A8C00022304E0032302E0012300E000237A6A2E
:101A9C0002F0030292009340FA681343FB602F4953
:101AAC007B6A9B080233FA6841F823203B685B6829
:101ABC0003F48013002B06D02C4B9A682B49BB697E
:101ACC0013438B6006E0294B9A68BB69DB432749BB
:101ADC0013408B603B685B6803F40013002B06D04B
:101AEC00224BDA682149BB691343CB6006E01F4BDC
:101AFC00DA68BB69DB431D491340CB603B685B680C
:101B0C0003F40033002B06D0184B5A681749BB69F5
:101B1C0013434B6006E0154B5A68BB69DB43134912
:101B2C0013404B603B685B6803F48033002B1FD081
:101B3C000E4B1A680D49BB6913430B601FE000BFC5
:101B4C0000003210000031100000221000002110A3
:101B5C0000001210000011100010024000000140A3
:101B6C0000080140000C014000100140000401403D
:101B7C000B4B1A68BB69DB43094913400B607B6A4A
:101B8C0001337B623B681A687B6A22FA03F3002BF1
:101B9C007FF496AE00BF00BF2C37BD4680BC7047AB
:101BAC000004014080B485B000AF78600B467B80A8
:101BBC007B689A687B881340002B02D00123FB734F
:101BCC0001E00023FB73FB7B18461437BD4680BC39
:101BDC00704780B483B000AF78600B467B801346AF
:101BEC007B707B78002B03D07A887B681A6103E0CA
:101BFC007B881A047B681A6100BF0C37BD4680BC19
:101C0C00704780B485B000AF78600B467B807B68F2
:101C1C00DB68FB607A88FB6813401A04FB68D943C5
:101C2C007B880B401A437B681A6100BF1437BD4692
:101C3C0080BC704780B586B000AF78607B68002BA5
:101C4C0001D1012372E27B681B6803F00103002BB6
:101C5C0000F08780924B5B6803F00C03042B0CD0D4
:101C6C008F4B5B6803F00C03082B12D18C4B5B6819
:101C7C0003F48033B3F5803F0BD1894B1B6803F41D
:101C8C000033002B6CD07B685B68002B68D1012380
:101C9C004CE27B685B68B3F5803F06D1804B1B68D8
:101CAC007F4A43F4803313602EE07B685B68002B23
:101CBC000CD17B4B1B687A4A23F480331360784B2E
:101CCC001B68774A23F4802313601DE07B685B68F4
:101CDC00B3F5A02F0CD1724B1B68714A43F48023CF
:101CEC0013606F4B1B686E4A43F4803313600BE038
:101CFC006B4B1B686A4A23F480331360684B1B6878
:101D0C00674A23F4802313607B685B68002B13D035
:101D1C00FFF790FC386108E0FFF78CFC02463B694A
:101D2C00D31A642B01D9032300E25D4B1B6803F427
:101D3C000033002BF0D014E0FFF77CFC386108E096
:101D4C00FFF778FC02463B69D31A642B01D90323B5
:101D5C00ECE1534B1B6803F40033002BF0D100E093
:101D6C0000BF7B681B6803F00203002B63D04C4B55
:101D7C005B6803F00C03002B0BD0494B5B6803F042
:101D8C000C03082B1CD1464B5B6803F48033002BEF
:101D9C0016D1434B1B6803F00203002B05D07B6864
:101DAC001B69012B01D00123C0E13D4B1B6823F0C3
:101DBC00F8027B685B69DB00394913430B603AE03E
:101DCC007B681B69002B20D0364B01221A60FFF771
:101DDC0031FC386108E0FFF72DFC02463B69D31A51
:101DEC00022B01D90323A1E12D4B1B6803F0020345
:101DFC00002BF0D02A4B1B6823F0F8027B685B6940
:101E0C00DB00274913430B6015E0264B00221A60B8
:101E1C00FFF710FC386108E0FFF70CFC02463B6949
:101E2C00D31A022B01D9032380E11D4B1B6803F04D
:101E3C000203002BF0D17B681B6803F00803002B16
:101E4C003AD07B689B69002B19D0174B01221A6082
:101E5C00FFF7F0FB386108E0FFF7ECFB02463B694B
:101E6C00D31A022B01D9032360E10D4B5B6A03F0FB
:101E7C000203002BF0D0012000F09CFA1CE00A4B6E
:101E8C0000221A60FFF7D6FB38610FE0FFF7D2FB98
:101E9C0002463B69D31A022B08D9032346E100BF43
:101EAC00001002400000424280044242924B5B6AA6
:101EBC0003F00203002BE9D17B681B6803F00403D9
:101ECC00002B00F0A6800023FB758B4BDB6903F025
:101EDC008053002B0DD1884BDB69874A43F080532C
:101EEC00D361854BDB6903F08053BB60BB68012376
:101EFC00FB75824B1B6803F48073002B18D17F4B4E
:101F0C001B687E4A43F480731360FFF793FB3861C0
:101F1C0008E0FFF78FFB02463B69D31A642B01D90B
:101F2C00032303E1754B1B6803F48073002BF0D083
:101F3C007B68DB68012B06D16F4B1B6A6E4A43F042
:101F4C00010313622DE07B68DB68002B0CD16A4B1C
:101F5C001B6A694A23F001031362674B1B6A664ACA
:101F6C0023F0040313621CE07B68DB68052B0CD1A7
:101F7C00614B1B6A604A43F0040313625E4B1B6A9D
:101F8C005D4A43F0010313620BE05B4B1B6A5A4A38
:101F9C0023F001031362584B1B6A574A23F00403C6
:101FAC0013627B68DB68002B15D0FFF743FB3861AD
:101FBC000AE0FFF73FFB02463B69D31A41F2883235
:101FCC00934201D90323B1E04B4B1B6A03F002038C
:101FDC00002BEED014E0FFF72DFB38610AE0FFF781
:101FEC0029FB02463B69D31A41F28832934201D94C
:101FFC0003239BE0404B1B6A03F00203002BEED142
:10200C00FB7D012B05D13C4BDB693B4A23F0805314
:10201C00D3617B68DB69002B00F08780364B5B68F3
:10202C0003F00C03082B61D07B68DB69022B46D1D3
:10203C00334B00221A60FFF7FDFA386108E0FFF716
:10204C00F9FA02463B69D31A022B01D903236DE03E
:10205C00294B1B6803F00073002BF0D17B681B6AC3
:10206C00B3F5803F08D1244B5B6823F400327B68C6
:10207C009B68214913434B601F4B5B6823F474121C
:10208C007B68196A7B685B6A0B431B4913434B6083
:10209C001B4B01221A60FFF7CDFA386108E0FFF7FD
:1020AC00C9FA02463B69D31A022B01D903233DE03E
:1020BC00114B1B6803F00073002BF0D035E0104B74
:1020CC0000221A60FFF7B6FA386108E0FFF7B2FA9F
:1020DC0002463B69D31A022B01D9032326E0064B97
:1020EC001B6803F00073002BF0D11EE07B68DB69EA
:1020FC00012B07D1012319E00010024000700040B1
:10210C00600042420B4B5B68FB60FB6803F480325F
:10211C007B681B6A9A4206D1FB6803F470127B68D9
:10212C005B6A9A4201D0012300E00023184618375D
:10213C00BD4680BD0010024080B584B000AF786011
:10214C0039607B68002B01D10123D0E06A4B1B68FE
:10215C0003F007033A689A4210D9674B1B6823F0C7
:10216C00070265493B6813430B60634B1B6803F024
:10217C0007033A689A4201D00123B8E07B681B68D8
:10218C0003F00203002B20D07B681B6803F00403D0
:10219C00002B05D0594B5B68584A43F4E0635360FD
:1021AC007B681B6803F00803002B05D0534B5B685E
:1021BC00524A43F460535360504B5B6823F0F00277
:1021CC007B689B684D4913434B607B681B6803F02D
:1021DC000103002B40D07B685B68012B07D1474B78
:1021EC001B6803F40033002B15D101237FE07B68BF
:1021FC005B68022B07D1414B1B6803F00073002B6B
:10220C0009D1012373E03D4B1B6803F00203002B43
:10221C0001D101236BE0394B5B6823F003027B682F
:10222C005B68364913434B60FFF704FAF8600AE029
:10223C00FFF700FA0246FB68D31A41F28832934248
:10224C0001D9032353E02D4B5B6803F00C027B6830
:10225C005B689B009A42EBD1274B1B6803F007038A
:10226C003A689A4210D2244B1B6823F00702224989
:10227C003B6813430B60204B1B6803F007033A6861
:10228C009A4201D0012332E07B681B6803F00403FF
:10229C00002B08D0194B5B6823F4E0627B68DB6889
:1022AC00164913434B607B681B6803F00803002B33
:1022BC0009D0124B5B6823F460527B681B69DB000E
:1022CC000E4913434B6000F021F802460B4B5B6840
:1022DC001B0903F00F030A49CB5C22FA03F3094AEA
:1022EC001360094B1B681846FFF762F90023184668
:1022FC001037BD4680BD00BF0020024000100240D8
:10230C00302C0008000000200400002080B487B0AE
:10231C0000AF0023FB600023BB6000237B61002324
:10232C007B6000233B611E4B5B68FB60FB6803F02A
:10233C000C03042B02D0082B03D027E0194B3B6174
:10234C0027E0FB689B0C03F00F03174AD35C7B6000
:10235C00FB6803F48033002B10D0114B5B685B0CD3
:10236C0003F00103114AD35CBB607B680D4A03FB8D
:10237C0002F2BB68B2FBF3F37B6104E07B680C4AAE
:10238C0002FB03F37B617B693B6102E0054B3B6124
:10239C0000BF3B6918461C37BD4680BC704700BF68
:1023AC000010024000127A00402C0008502C00084B
:1023BC0000093D0080B485B000AF78600A4B1B6803
:1023CC000A4AA2FB03235B0A7A6802FB03F3FB6055
:1023DC0000BFFB685A1EFA60002BF9D100BF00BF8A
:1023EC001437BD4680BC704700000020D34D6210EE
:1023FC0080B582B000AF78607B68002B01D10123DF
:10240C0041E07B6893F83D30DBB2002B06D17B6852
:10241C00002283F83C207868FEF7BAFB7B68022226
:10242C0083F83D207B681A687B6804331946104694
:10243C0000F056FA7B68012283F846207B68012263
:10244C0083F83E207B68012283F83F207B680122C1
:10245C0083F840207B68012283F841207B680122AD
:10246C0083F842207B68012283F843207B68012299
:10247C0083F844207B68012283F845207B68012285
:10248C0083F83D20002318460837BD4680BD000068
:10249C0080B485B000AF78607B6893F83D30DBB2D8
:1024AC00012B01D0012335E07B68022283F83D200B
:1024BC007B681B68DA687B681B6842F00102DA6093
:1024CC007B681B68164A934209D07B681B68B3F182
:1024DC00804F04D07B681B68124A934211D17B68F1
:1024EC001B689B6803F00703FB60FB68062B10D08E
:1024FC007B681B681A687B681B6842F001021A60D3
:10250C0007E07B681B681A687B681B6842F0010255
:10251C001A60002318461437BD4680BC704700BFB4
:10252C00002C01400004004080B584B000AF7860FE
:10253C007B681B68DB68FB607B681B681B69BB6086
:10254C00BB6803F00203002B20D0FB6803F00203EE
:10255C00002B1BD07B681B686FF002021A617B6832
:10256C0001221A777B681B689B6903F00303002B1D
:10257C0003D0786800F098F905E0786800F08BF9E2
:10258C00786800F09AF97B6800221A77BB6803F030
:10259C000403002B20D0FB6803F00403002B1BD09A
:1025AC007B681B686FF004021A617B6802221A7741
:1025BC007B681B689B6903F44073002B03D078681D
:1025CC0000F072F905E0786800F065F9786800F0C1
:1025DC0074F97B6800221A77BB6803F00803002BA0
:1025EC0020D0FB6803F00803002B1BD07B681B6812
:1025FC006FF008021A617B6804221A777B681B68EB
:10260C00DB6903F00303002B03D0786800F04CF96E
:10261C0005E0786800F03FF9786800F04EF97B68C7
:10262C0000221A77BB6803F01003002B20D0FB6844
:10263C0003F01003002B1BD07B681B686FF010029B
:10264C001A617B6808221A777B681B68DB6903F4C4
:10265C004073002B03D0786800F026F905E0786809
:10266C0000F019F9786800F028F97B6800221A77D5
:10267C00BB6803F00103002B0CD0FB6803F00103D3
:10268C00002B07D07B681B686FF001021A61786819
:10269C00FEF736FABB6803F08003002B0CD0FB6806
:1026AC0003F08003002B07D07B681B686FF080025F
:1026BC001A61786800F06FFABB6803F04003002BD6
:1026CC000CD0FB6803F04003002B07D07B681B6821
:1026DC006FF040021A61786800F0F8F8BB6803F0FC
:1026EC002003002B0CD0FB6803F02003002B07D039
:1026FC007B681B686FF020021A61786800F042FA60
:10270C0000BF1037BD4680BD80B584B000AF786087
:10271C0039600023FB737B6893F83C30012B01D1AB
:10272C000223B4E07B68012283F83C207B68022200
:10273C0083F83D207B681B689B68BB60BB6823F0FB
:10274C007703BB60BB6823F47F43BB607B681B686B
:10275C00BA689A603B681B68B3F5005F3ED0B3F56E
:10276C00005F00F28780B3F5805F00F08680B3F5E0
:10277C00805F7FD8702B1AD0702B7BD8602B50D0F9
:10278C00602B77D8502B3CD0502B73D8402B58D083
:10279C00402B6FD8302B64D0302B6BD8202B60D0D3
:1027AC00202B67D8002B5CD0102B5AD062E07B68B2
:1027BC0018683B6899683B685A683B68DB6800F0AE
:1027CC006AF97B681B689B68BB60BB6843F0770346
:1027DC00BB607B681B68BA689A604FE07B681868BE
:1027EC003B6899683B685A683B68DB6800F053F9B2
:1027FC007B681B689A687B681B6842F480429A600D
:10280C003CE07B6818683B6859683B68DB681A4693
:10281C0000F0CAF87B681B685021184600F021F9BB
:10282C002CE07B6818683B6859683B68DB681A4683
:10283C0000F0E8F87B681B686021184600F011F97D
:10284C001CE07B6818683B6859683B68DB681A4673
:10285C0000F0AAF87B681B684021184600F001F9CB
:10286C000CE07B681A683B681B681946104600F040
:10287C00F8F803E00123FB7300E000BF7B68012242
:10288C0083F83D207B68002283F83C20FB7B1846B4
:10289C001037BD4680BD80B483B000AF786000BFF8
:1028AC000C37BD4680BC704780B483B000AF7860F5
:1028BC0000BF0C37BD4680BC704780B483B000AFFE
:1028CC00786000BF0C37BD4680BC704780B483B0C5
:1028DC0000AF786000BF0C37BD4680BC704700006D
:1028EC0080B485B000AF786039607B681B68FB6092
:1028FC007B682B4A934207D07B68B3F1804F03D09F
:10290C007B68284A934208D1FB6823F07003FB6074
:10291C003B685B68FA681343FB607B68204A934210
:10292C0007D07B68B3F1804F03D07B681D4A93427C
:10293C0008D1FB6823F44073FB603B68DB68FA68E2
:10294C001343FB60FB6823F080023B685B69134315
:10295C00FB607B68FA681A603B689A687B68DA628D
:10296C003B681A687B689A627B680D4A934203D174
:10297C003B681A697B681A637B6801225A617B6821
:10298C001B6903F00103002B05D07B681B6923F046
:10299C0001027B681A6100BF1437BD4680BC7047CA
:1029AC00002C01400004004080B487B000AFF860F8
:1029BC00B9607A60FB681B6A7B61FB681B6A23F059
:1029CC000102FB681A62FB689B693B613B6923F05F
:1029DC00F0033B617B681B013A6913433B617B69E4
:1029EC0023F00A037B617A69BB6813437B61FB6844
:1029FC003A699A61FB687A691A6200BF1C37BD4656
:102A0C0080BC704780B487B000AFF860B9607A6062
:102A1C00FB681B6A7B61FB681B6A23F01002FB6876
:102A2C001A62FB689B693B613B6923F470433B6111
:102A3C007B681B033A6913433B617B6923F0A0035A
:102A4C007B61BB681B017A6913437B61FB683A6944
:102A5C009A61FB687A691A6200BF1C37BD4680BC5C
:102A6C00704780B485B000AF786039607B689B6834
:102A7C00FB60FB6823F07003FB603A68FB68134350
:102A8C0043F00703FB607B68FA689A6000BF143759
:102A9C00BD4680BC704780B487B000AFF860B960A9
:102AAC007A603B60FB689B687B617B6923F47F43A6
:102ABC007B613B681A027B681A43BB6813437A69D3
:102ACC0013437B61FB687A699A6000BF1C37BD4673
:102ADC0080BC704780B485B000AF786039607B688B
:102AEC0093F83C30012B01D1022341E07B68012299
:102AFC0083F83C207B68022283F83D207B681B68AE
:102B0C005B68FB607B681B689B68BB60FB6823F0A1
:102B1C007003FB603B681B68FA681343FB607B68BF
:102B2C001B68FA685A607B681B68144A934209D088
:102B3C007B681B68B3F1804F04D07B681B68104A1C
:102B4C0093420CD1BB6823F08003BB603B685B688D
:102B5C00BA681343BB607B681B68BA689A607B6871
:102B6C00012283F83D207B68002283F83C2000235F
:102B7C0018461437BD4680BC704700BF002C01407E
:102B8C000004004080B483B000AF786000BF0C3705
:102B9C00BD4680BC704780B483B000AF786000BF86
:102BAC000C37BD4680BC704703460244934200D1AB
:102BBC00704703F8011BF9E770B500260C4D0D4C5E
:102BCC00641BA410A64209D100F01AF800260A4D85
:102BDC000A4C641BA410A64205D170BD55F8043BE9
:102BEC0098470136EEE755F8043B98470136F2E773
:102BFC00542C0008542C0008542C0008582C0008A5
:102C0C00F8B500BFF8BC08BC9E467047F8B500BFCD
:082C1C00F8BC08BC9E4670479D
:102C24003F065B4F666D7D077F6F0000000000006C
:102C3400000000000102030406070809020304055A
:102C4400060708090A0B0C0D0E0F101001020000F4
:042C54003101000842
:042C58000D01000862
:0C2C5C0000127A001000000001000000CF
:040000050800154595
:00000001FF
